{
  "_format": "hh-sol-artifact-1",
  "contractName": "StakingPoolActions",
  "sourceName": "contracts/StakingPoolActions.sol",
  "abi": [
    {
      "inputs": [
        {
          "internalType": "address",
          "name": "_implementation",
          "type": "address"
        },
        {
          "internalType": "address",
          "name": "_feeReceiver",
          "type": "address"
        },
        {
          "internalType": "uint256",
          "name": "_fee",
          "type": "uint256"
        },
        {
          "internalType": "address",
          "name": "_newOwner",
          "type": "address"
        }
      ],
      "stateMutability": "nonpayable",
      "type": "constructor"
    },
    {
      "inputs": [],
      "name": "Fee",
      "type": "error"
    },
    {
      "inputs": [],
      "name": "FeeReceiverIsZeroAddress",
      "type": "error"
    },
    {
      "anonymous": false,
      "inputs": [
        {
          "indexed": true,
          "internalType": "address",
          "name": "previousOwner",
          "type": "address"
        },
        {
          "indexed": true,
          "internalType": "address",
          "name": "newOwner",
          "type": "address"
        }
      ],
      "name": "OwnershipTransferred",
      "type": "event"
    },
    {
      "anonymous": false,
      "inputs": [
        {
          "indexed": false,
          "internalType": "address",
          "name": "poolAddress",
          "type": "address"
        }
      ],
      "name": "PoolCreated",
      "type": "event"
    },
    {
      "anonymous": false,
      "inputs": [
        {
          "indexed": true,
          "internalType": "bytes32",
          "name": "role",
          "type": "bytes32"
        },
        {
          "indexed": true,
          "internalType": "bytes32",
          "name": "previousAdminRole",
          "type": "bytes32"
        },
        {
          "indexed": true,
          "internalType": "bytes32",
          "name": "newAdminRole",
          "type": "bytes32"
        }
      ],
      "name": "RoleAdminChanged",
      "type": "event"
    },
    {
      "anonymous": false,
      "inputs": [
        {
          "indexed": true,
          "internalType": "bytes32",
          "name": "role",
          "type": "bytes32"
        },
        {
          "indexed": true,
          "internalType": "address",
          "name": "account",
          "type": "address"
        },
        {
          "indexed": true,
          "internalType": "address",
          "name": "sender",
          "type": "address"
        }
      ],
      "name": "RoleGranted",
      "type": "event"
    },
    {
      "anonymous": false,
      "inputs": [
        {
          "indexed": true,
          "internalType": "bytes32",
          "name": "role",
          "type": "bytes32"
        },
        {
          "indexed": true,
          "internalType": "address",
          "name": "account",
          "type": "address"
        },
        {
          "indexed": true,
          "internalType": "address",
          "name": "sender",
          "type": "address"
        }
      ],
      "name": "RoleRevoked",
      "type": "event"
    },
    {
      "inputs": [],
      "name": "DEFAULT_ADMIN_ROLE",
      "outputs": [
        {
          "internalType": "bytes32",
          "name": "",
          "type": "bytes32"
        }
      ],
      "stateMutability": "view",
      "type": "function"
    },
    {
      "inputs": [
        {
          "internalType": "uint256",
          "name": "",
          "type": "uint256"
        }
      ],
      "name": "allPools",
      "outputs": [
        {
          "internalType": "address",
          "name": "",
          "type": "address"
        }
      ],
      "stateMutability": "view",
      "type": "function"
    },
    {
      "inputs": [
        {
          "internalType": "address",
          "name": "_newOwner",
          "type": "address"
        },
        {
          "internalType": "address",
          "name": "_token0",
          "type": "address"
        },
        {
          "internalType": "address",
          "name": "_token1",
          "type": "address"
        },
        {
          "internalType": "uint24",
          "name": "_apyRate",
          "type": "uint24"
        },
        {
          "internalType": "uint16",
          "name": "_stakeFeePercentage",
          "type": "uint16"
        },
        {
          "internalType": "uint16",
          "name": "_withdrawalFeePerecentage",
          "type": "uint16"
        },
        {
          "internalType": "address",
          "name": "_feeReceiver",
          "type": "address"
        },
        {
          "internalType": "uint256",
          "name": "_intervals",
          "type": "uint256"
        }
      ],
      "name": "createStakingPool",
      "outputs": [
        {
          "internalType": "address",
          "name": "_pool",
          "type": "address"
        }
      ],
      "stateMutability": "payable",
      "type": "function"
    },
    {
      "inputs": [],
      "name": "fee",
      "outputs": [
        {
          "internalType": "uint256",
          "name": "",
          "type": "uint256"
        }
      ],
      "stateMutability": "view",
      "type": "function"
    },
    {
      "inputs": [],
      "name": "feeReceiver",
      "outputs": [
        {
          "internalType": "address",
          "name": "",
          "type": "address"
        }
      ],
      "stateMutability": "view",
      "type": "function"
    },
    {
      "inputs": [
        {
          "internalType": "bytes32",
          "name": "role",
          "type": "bytes32"
        }
      ],
      "name": "getRoleAdmin",
      "outputs": [
        {
          "internalType": "bytes32",
          "name": "",
          "type": "bytes32"
        }
      ],
      "stateMutability": "view",
      "type": "function"
    },
    {
      "inputs": [
        {
          "internalType": "bytes32",
          "name": "role",
          "type": "bytes32"
        },
        {
          "internalType": "address",
          "name": "account",
          "type": "address"
        }
      ],
      "name": "grantRole",
      "outputs": [],
      "stateMutability": "nonpayable",
      "type": "function"
    },
    {
      "inputs": [
        {
          "internalType": "bytes32",
          "name": "role",
          "type": "bytes32"
        },
        {
          "internalType": "address",
          "name": "account",
          "type": "address"
        }
      ],
      "name": "hasRole",
      "outputs": [
        {
          "internalType": "bool",
          "name": "",
          "type": "bool"
        }
      ],
      "stateMutability": "view",
      "type": "function"
    },
    {
      "inputs": [],
      "name": "implementation",
      "outputs": [
        {
          "internalType": "address",
          "name": "",
          "type": "address"
        }
      ],
      "stateMutability": "view",
      "type": "function"
    },
    {
      "inputs": [
        {
          "internalType": "address",
          "name": "_account",
          "type": "address"
        }
      ],
      "name": "isExcludedFromFees",
      "outputs": [
        {
          "internalType": "bool",
          "name": "",
          "type": "bool"
        }
      ],
      "stateMutability": "view",
      "type": "function"
    },
    {
      "inputs": [],
      "name": "owner",
      "outputs": [
        {
          "internalType": "address",
          "name": "",
          "type": "address"
        }
      ],
      "stateMutability": "view",
      "type": "function"
    },
    {
      "inputs": [
        {
          "internalType": "address",
          "name": "_token",
          "type": "address"
        },
        {
          "internalType": "address",
          "name": "_to",
          "type": "address"
        },
        {
          "internalType": "uint256",
          "name": "_amount",
          "type": "uint256"
        }
      ],
      "name": "redeemERC20",
      "outputs": [],
      "stateMutability": "nonpayable",
      "type": "function"
    },
    {
      "inputs": [
        {
          "internalType": "address",
          "name": "_to",
          "type": "address"
        },
        {
          "internalType": "uint256",
          "name": "_amount",
          "type": "uint256"
        }
      ],
      "name": "redeemEther",
      "outputs": [],
      "stateMutability": "nonpayable",
      "type": "function"
    },
    {
      "inputs": [],
      "name": "renounceOwnership",
      "outputs": [],
      "stateMutability": "nonpayable",
      "type": "function"
    },
    {
      "inputs": [
        {
          "internalType": "bytes32",
          "name": "role",
          "type": "bytes32"
        },
        {
          "internalType": "address",
          "name": "account",
          "type": "address"
        }
      ],
      "name": "renounceRole",
      "outputs": [],
      "stateMutability": "nonpayable",
      "type": "function"
    },
    {
      "inputs": [
        {
          "internalType": "bytes32",
          "name": "role",
          "type": "bytes32"
        },
        {
          "internalType": "address",
          "name": "account",
          "type": "address"
        }
      ],
      "name": "revokeRole",
      "outputs": [],
      "stateMutability": "nonpayable",
      "type": "function"
    },
    {
      "inputs": [
        {
          "internalType": "uint256",
          "name": "_fee",
          "type": "uint256"
        }
      ],
      "name": "setFee",
      "outputs": [],
      "stateMutability": "nonpayable",
      "type": "function"
    },
    {
      "inputs": [
        {
          "internalType": "address",
          "name": "_feeReceiver",
          "type": "address"
        }
      ],
      "name": "setFeeReceiver",
      "outputs": [],
      "stateMutability": "nonpayable",
      "type": "function"
    },
    {
      "inputs": [
        {
          "internalType": "bytes4",
          "name": "interfaceId",
          "type": "bytes4"
        }
      ],
      "name": "supportsInterface",
      "outputs": [
        {
          "internalType": "bool",
          "name": "",
          "type": "bool"
        }
      ],
      "stateMutability": "view",
      "type": "function"
    },
    {
      "inputs": [
        {
          "internalType": "address",
          "name": "_account",
          "type": "address"
        }
      ],
      "name": "switchFeeRequirement",
      "outputs": [],
      "stateMutability": "nonpayable",
      "type": "function"
    },
    {
      "inputs": [
        {
          "internalType": "address",
          "name": "newOwner",
          "type": "address"
        }
      ],
      "name": "transferOwnership",
      "outputs": [],
      "stateMutability": "nonpayable",
      "type": "function"
    },
    {
      "stateMutability": "payable",
      "type": "receive"
    }
  ],
  "bytecode": "0x6080346200011457601f620013e638819003918201601f1916830191906001600160401b0383118484101762000119578160809285926040958652833981010312620001145762000050826200012f565b6200005e602084016200012f565b6200007060608486015195016200012f565b916200007c3362000144565b600280546001600160a01b03199081166001600160a01b039384161790915560038054909116928216928317905590620000b56200018b565b156200010357620000f59293600555620000ce6200018b565b811660009081526006602052839020805460ff818116151660ff1990911617905562000144565b516112019081620001e58239f35b8251631b37623f60e11b8152600490fd5b600080fd5b634e487b7160e01b600052604160045260246000fd5b51906001600160a01b03821682036200011457565b600080546001600160a01b039283166001600160a01b03198216811783559216907f8be0079c531659141344cd1fd0a4f28419497f9722a3daafe3b4186f6b6457e09080a3565b6000546001600160a01b03163303620001a057565b606460405162461bcd60e51b815260206004820152602060248201527f4f776e61626c653a2063616c6c6572206973206e6f7420746865206f776e65726044820152fdfe608080604052600436101561003b575b50361561001b57600080fd5b6003546001600160a01b03168061002e57005b610039903490611193565b005b600090813560e01c90816301ffc9a714610b5357508063248a9ca314610b275780632f2ff15d14610a7857806334220ceb14610a0a57806336568abe1461097757806341d1de97146109335780634fbee193146108f45780635c60da1b146108cb57806369fe0e2d146108855780636e4be558146106ec578063715018a6146106925780638c84bab3146106475780638da5cb5b1461062057806391d14854146105d7578063a217fddf146105bb578063b3f0067414610592578063bf2a2a3014610292578063d547741f14610251578063ddca3f4314610233578063efdcd974146101f35763f2fde38b0361000f57346101f05760203660031901126101f057610144610bc7565b61014c611059565b6001600160a01b0390811690811561019c57600054826001600160601b0360a01b821617600055167f8be0079c531659141344cd1fd0a4f28419497f9722a3daafe3b4186f6b6457e0600080a380f35b60405162461bcd60e51b815260206004820152602660248201527f4f776e61626c653a206e6577206f776e657220697320746865207a65726f206160448201526564647265737360d01b6064820152608490fd5b80fd5b50346101f05760203660031901126101f05761020d610bc7565b610215611059565b60018060a01b03166001600160601b0360a01b600354161760035580f35b50346101f057806003193601126101f0576020600554604051908152f35b50346101f05760403660031901126101f05761028f600435610271610bac565b90808452600160205261028a6001604086200154610c2a565b610fe3565b80f35b506101003660031901126101f0576102a8610bc7565b906102b1610bac565b916044356001600160a01b038116900361058e5760643562ffffff808216820361058a5761ffff9060843582811681036105865760a4359183831683036105825760c435946001600160a01b038616860361057e57338852600660205260ff60408920541615610539575b60405160208101906001600160601b0319808c60601b16835260443560601b1660348201524260488201526048815261035481610f79565b519020600254608881901c8416763d602d80600a3d3981f3363d3d373d3d3d363d73000000178a5260781b6effffffffffffffffffffffffffffff19166e5af43d82803e903d91602b57fd5bf3176020526001600160a01b0390603760098bf5169889156104f4577f83a48fbcfc991335314e74d0496aab6a1987e992ddc85dddbcc4d6dd6ef2e9fc60206040518c8152a1893b156104f05760405163a9b2181760e01b81526001600160a01b039889166004820152908816602482015260448035891690820152911660648201529083166084820152911660a4820152911660c482015260e480359082015281816101048183875af180156104e5576104b9575b509060045491680100000000000000008310156104a557508061048183600160209501600455610bdd565b819291549060031b60018060a01b03811b9283911b16911916179055604051908152f35b634e487b7160e01b81526041600452602490fd5b67ffffffffffffffff81116104d15760405238610456565b634e487b7160e01b82526041600452602482fd5b6040513d84823e3d90fd5b8880fd5b60405162461bcd60e51b815260206004820152601760248201527f455243313136373a2063726561746532206661696c65640000000000000000006044820152606490fd5b600554341061056c576003546001600160a01b03168061055a575b5061031c565b610565903490611193565b5038610554565b604051630bef7a2f60e41b8152600490fd5b8780fd5b8680fd5b8580fd5b8380fd5b5080fd5b50346101f057806003193601126101f0576003546040516001600160a01b039091168152602090f35b50346101f057806003193601126101f057602090604051908152f35b50346101f05760403660031901126101f05760ff60406020926105f8610bac565b6004358252600185528282206001600160a01b03909116825284522054604051911615158152f35b50346101f057806003193601126101f057546040516001600160a01b039091168152602090f35b50346101f05760203660031901126101f057610661610bc7565b610669611059565b6001600160a01b03168152600660205260408120805460ff818116151660ff1990911617905580f35b50346101f057806003193601126101f0576106ab611059565b80546001600160a01b03198116825581906001600160a01b03167f8be0079c531659141344cd1fd0a4f28419497f9722a3daafe3b4186f6b6457e08280a380f35b50346101f05760603660031901126101f057610706610bc7565b61070e610bac565b906044359161071b611059565b6040516370a0823160e01b81523060048201526020936001600160a01b039185816024818887165afa801561087a5782918891610849575b501061080e57849392869283927f7472616e7366657228616464726573732c75696e74323536290000000000000061080a9860405161079181610f47565b601981520152604051918783019363a9059cbb60e01b85521660248301526044820152604481526107c181610f79565b7f416464726573733a206c6f772d6c6576656c2063616c6c206661696c65640000604051966107ef88610f47565b601e8852870152519082855af16108046110c2565b91611102565b5080f35b60405162461bcd60e51b81526004810186905260136024820152724445524845583a206c6f775f62616c616e636560681b6044820152606490fd5b809250878092503d8311610873575b6108628183610f95565b810103126105825781905138610753565b503d610858565b6040513d89823e3d90fd5b50346101f05760203660031901126101f05761089f611059565b6003546001600160a01b0316156108b95760043560055580f35b604051631b37623f60e11b8152600490fd5b50346101f057806003193601126101f0576002546040516001600160a01b039091168152602090f35b50346101f05760203660031901126101f05760209060ff906040906001600160a01b0361091f610bc7565b168152600684522054166040519015158152f35b50346101f05760203660031901126101f057600435906004548210156101f057602061095e83610bdd565b905460405160039290921b1c6001600160a01b03168152f35b50346101f05760403660031901126101f057610991610bac565b336001600160a01b038216036109ad5761028f90600435610fe3565b60405162461bcd60e51b815260206004820152602f60248201527f416363657373436f6e74726f6c3a2063616e206f6e6c792072656e6f756e636560448201526e103937b632b9903337b91039b2b63360891b6064820152608490fd5b50346101f05760403660031901126101f057610a24610bc7565b602435610a2f611059565b804710610a3f5761080a91611193565b60405162461bcd60e51b81526020600482015260116024820152702222a92422ac1d103637bbafb2ba3432b960791b6044820152606490fd5b50346101f05760403660031901126101f057600435610a95610bac565b8183526001602052610aad6001604085200154610c2a565b8183526001602052604083209060018060a01b03169081845260205260ff60408420541615610ada578280f35b81835260016020526040832081845260205260408320600160ff1982541617905533917f2f8788117e7eff1d82e926ec794901d17c78024a50270940304540a733656f0d8480a438808280f35b50346101f05760203660031901126101f057600160406020926004358152828452200154604051908152f35b90503461058e57602036600319011261058e5760043563ffffffff60e01b8116809103610ba85760209250637965db0b60e01b8114908115610b97575b5015158152f35b6301ffc9a760e01b14905038610b90565b8280fd5b602435906001600160a01b0382168203610bc257565b600080fd5b600435906001600160a01b0382168203610bc257565b600454811015610c145760046000527f8a35acfbc15ff81a39ae7d344fd709f28e8600b4aa8c65c6b64bfe7fe36bd19b0190600090565b634e487b7160e01b600052603260045260246000fd5b6000818152600190602091808352604093848320338452845260ff858420541615610c56575050505050565b845133916060820167ffffffffffffffff811183821017610f10578752602a82528582019287368537825115610efc57603084538251851015610efc576078602184015360295b858111610e925750610e5057865193610cb585610f79565b60428552868501956060368837855115610e3c57603087538551821015610e3c5790607860218701536041915b818311610dce57505050610d8c57938593610d7293610d63604894610d3a7f416363657373436f6e74726f6c3a206163636f756e742000000000000000000099610d889b519a8b978801525180926037880190610f24565b8401917001034b99036b4b9b9b4b733903937b6329607d1b603784015251809386840190610f24565b01036028810185520183610f95565b5162461bcd60e51b815291829160048301610fb7565b0390fd5b60648587519062461bcd60e51b825280600483015260248201527f537472696e67733a20686578206c656e67746820696e73756666696369656e746044820152fd5b909192600f81166010811015610e28576f181899199a1a9b1b9c1cb0b131b232b360811b901a610dfe85896110b1565b5360041c928015610e1457600019019190610ce2565b634e487b7160e01b82526011600452602482fd5b634e487b7160e01b83526032600452602483fd5b634e487b7160e01b81526032600452602490fd5b60648688519062461bcd60e51b825280600483015260248201527f537472696e67733a20686578206c656e67746820696e73756666696369656e746044820152fd5b90600f81166010811015610ee8576f181899199a1a9b1b9c1cb0b131b232b360811b901a610ec083866110b1565b5360041c908015610ed45760001901610c9d565b634e487b7160e01b87526011600452602487fd5b634e487b7160e01b88526032600452602488fd5b634e487b7160e01b86526032600452602486fd5b634e487b7160e01b86526041600452602486fd5b60005b838110610f375750506000910152565b8181015183820152602001610f27565b6040810190811067ffffffffffffffff821117610f6357604052565b634e487b7160e01b600052604160045260246000fd5b6080810190811067ffffffffffffffff821117610f6357604052565b90601f8019910116810190811067ffffffffffffffff821117610f6357604052565b60409160208252610fd78151809281602086015260208686019101610f24565b601f01601f1916010190565b906000918083526001602052604083209160018060a01b03169182845260205260ff60408420541661101457505050565b8083526001602052604083208284526020526040832060ff1981541690557ff6391f5c32d9c69d2a47ea670b442974b53935d1edc7fd64eb21e047a839171b339380a4565b6000546001600160a01b0316330361106d57565b606460405162461bcd60e51b815260206004820152602060248201527f4f776e61626c653a2063616c6c6572206973206e6f7420746865206f776e65726044820152fd5b908151811015610c14570160200190565b3d156110fd573d9067ffffffffffffffff8211610f6357604051916110f1601f8201601f191660200184610f95565b82523d6000602084013e565b606090565b919290156111645750815115611116575090565b3b1561111f5790565b60405162461bcd60e51b815260206004820152601d60248201527f416464726573733a2063616c6c20746f206e6f6e2d636f6e74726163740000006044820152606490fd5b8251909150156111775750805190602001fd5b60405162461bcd60e51b8152908190610d889060048301610fb7565b604051602081019080821067ffffffffffffffff831117610f63576000938493848094938194604052525af16111c76110c2565b509056fea264697066735822122038f0fb028c3c6632ad1044e823b432e58bc1cf7c5226828a8e691bd329592b1164736f6c63430008110033",
  "linkReferences": {},
  "deployedLinkReferences": {}
}