{
  "_format": "hh-sol-artifact-1",
  "contractName": "VotingSlotFactory",
  "sourceName": "contracts/VotingFactory.sol",
  "abi": [
    {
      "inputs": [
        {
          "internalType": "address",
          "name": "_implementation",
          "type": "address"
        },
        {
          "internalType": "address",
          "name": "newOwner",
          "type": "address"
        }
      ],
      "stateMutability": "nonpayable",
      "type": "constructor"
    },
    {
      "anonymous": false,
      "inputs": [
        {
          "indexed": true,
          "internalType": "address",
          "name": "previousOwner",
          "type": "address"
        },
        {
          "indexed": true,
          "internalType": "address",
          "name": "newOwner",
          "type": "address"
        }
      ],
      "name": "OwnershipTransferred",
      "type": "event"
    },
    {
      "anonymous": false,
      "inputs": [
        {
          "indexed": false,
          "internalType": "address",
          "name": "slot",
          "type": "address"
        },
        {
          "indexed": false,
          "internalType": "string",
          "name": "name",
          "type": "string"
        },
        {
          "indexed": false,
          "internalType": "string",
          "name": "description",
          "type": "string"
        },
        {
          "indexed": false,
          "internalType": "string",
          "name": "image",
          "type": "string"
        },
        {
          "indexed": false,
          "internalType": "address",
          "name": "newOwner",
          "type": "address"
        },
        {
          "indexed": false,
          "internalType": "address",
          "name": "stakingPool",
          "type": "address"
        },
        {
          "indexed": false,
          "internalType": "uint16",
          "name": "maxFreeVotesPerDay",
          "type": "uint16"
        },
        {
          "indexed": false,
          "internalType": "uint256",
          "name": "voteStartDate",
          "type": "uint256"
        },
        {
          "indexed": false,
          "internalType": "uint256",
          "name": "voteEndDate",
          "type": "uint256"
        },
        {
          "indexed": false,
          "internalType": "uint256",
          "name": "maxVoteWeightPerUser",
          "type": "uint256"
        }
      ],
      "name": "VotingSlotCreated",
      "type": "event"
    },
    {
      "inputs": [
        {
          "internalType": "uint256",
          "name": "",
          "type": "uint256"
        }
      ],
      "name": "allSlots",
      "outputs": [
        {
          "internalType": "address",
          "name": "",
          "type": "address"
        }
      ],
      "stateMutability": "view",
      "type": "function"
    },
    {
      "inputs": [
        {
          "internalType": "string",
          "name": "name",
          "type": "string"
        },
        {
          "internalType": "string",
          "name": "description",
          "type": "string"
        },
        {
          "internalType": "string",
          "name": "image",
          "type": "string"
        },
        {
          "internalType": "address",
          "name": "newOwner",
          "type": "address"
        },
        {
          "internalType": "contract IStakingPool",
          "name": "stakingPool",
          "type": "address"
        },
        {
          "internalType": "uint16",
          "name": "maxFreeVotesPerDay",
          "type": "uint16"
        },
        {
          "internalType": "uint256",
          "name": "voteStartDate",
          "type": "uint256"
        },
        {
          "internalType": "uint256",
          "name": "voteEndDate",
          "type": "uint256"
        },
        {
          "internalType": "uint256",
          "name": "maxVoteWeightPerUser",
          "type": "uint256"
        }
      ],
      "name": "createVotingSlot",
      "outputs": [
        {
          "internalType": "address",
          "name": "slot",
          "type": "address"
        }
      ],
      "stateMutability": "nonpayable",
      "type": "function"
    },
    {
      "inputs": [],
      "name": "implementation",
      "outputs": [
        {
          "internalType": "address",
          "name": "",
          "type": "address"
        }
      ],
      "stateMutability": "view",
      "type": "function"
    },
    {
      "inputs": [],
      "name": "owner",
      "outputs": [
        {
          "internalType": "address",
          "name": "",
          "type": "address"
        }
      ],
      "stateMutability": "view",
      "type": "function"
    },
    {
      "inputs": [
        {
          "internalType": "address",
          "name": "_token",
          "type": "address"
        },
        {
          "internalType": "address",
          "name": "_to",
          "type": "address"
        },
        {
          "internalType": "uint256",
          "name": "_amount",
          "type": "uint256"
        }
      ],
      "name": "redeemERC20",
      "outputs": [],
      "stateMutability": "nonpayable",
      "type": "function"
    },
    {
      "inputs": [
        {
          "internalType": "address",
          "name": "_to",
          "type": "address"
        },
        {
          "internalType": "uint256",
          "name": "_amount",
          "type": "uint256"
        }
      ],
      "name": "redeemEther",
      "outputs": [],
      "stateMutability": "nonpayable",
      "type": "function"
    },
    {
      "inputs": [],
      "name": "renounceOwnership",
      "outputs": [],
      "stateMutability": "nonpayable",
      "type": "function"
    },
    {
      "inputs": [
        {
          "internalType": "address",
          "name": "newOwner",
          "type": "address"
        }
      ],
      "name": "transferOwnership",
      "outputs": [],
      "stateMutability": "nonpayable",
      "type": "function"
    },
    {
      "stateMutability": "payable",
      "type": "receive"
    }
  ],
  "bytecode": "0x60803461009457601f610bea38819003918201601f19168301916001600160401b038311848410176100995780849260409485528339810103126100945780610056602061004f610085946100af565b92016100af565b90610060336100c3565b600180546001600160a01b0319166001600160a01b03929092169190911790556100c3565b604051610adf908161010b8239f35b600080fd5b634e487b7160e01b600052604160045260246000fd5b51906001600160a01b038216820361009457565b600080546001600160a01b039283166001600160a01b03198216811783559216907f8be0079c531659141344cd1fd0a4f28419497f9722a3daafe3b4186f6b6457e09080a356fe604060808152600436101561001d575b50361561001b57600080fd5b005b600090813560e01c806334220ceb146107dd5780635c60da1b146107b557806367add5bc146103f15780636e4be5581461022e578063715018a6146101d15780638da5cb5b146101aa578063e2e7da7a1461014a5763f2fde38b14610082575061000f565b346101465760203660031901126101465761009b610885565b6100a361093c565b6001600160a01b039081169182156100f45750600054826001600160601b0360a01b821617600055167f8be0079c531659141344cd1fd0a4f28419497f9722a3daafe3b4186f6b6457e0600080a380f35b5162461bcd60e51b815260206004820152602660248201527f4f776e61626c653a206e6577206f776e657220697320746865207a65726f206160448201526564647265737360d01b6064820152608490fd5b5080fd5b5034610146576020366003190112610146576004356002548110156101a65760026000527f405787fa12a823e0f2b7631cc41b3ba8828b3321ca811111fa75cd3aa3bb5ace015490516001600160a01b03909116815260209150f35b8280fd5b5034610146578160031936011261014657905490516001600160a01b039091168152602090f35b823461022b578060031936011261022b576101ea61093c565b600080546001600160a01b0319811682556001600160a01b03167f8be0079c531659141344cd1fd0a4f28419497f9722a3daafe3b4186f6b6457e08280a380f35b80fd5b503461014657606036600319011261014657610248610885565b6024356001600160a01b038181169392918490036103ec5760443561026b61093c565b835180926370a0823160e01b8252306004830152816024602095869388165afa9081156103e25790829188916103ad575b5010610376577f7472616e7366657228616464726573732c75696e7432353629000000000000008285516102cf8161089b565b60198152015283519182019463a9059cbb60e01b86526024830152604482015260448152608081019281841067ffffffffffffffff8511176103605761035c9486928584935261031e8661089b565b601e86527f416464726573733a206c6f772d6c6576656c2063616c6c206661696c6564000060a0820152519082855af16103566109dc565b91610a0c565b5080f35b634e487b7160e01b600052604160045260246000fd5b835162461bcd60e51b815260048101839052601060248201526f4142563a206c6f775f62616c616e636560801b6044820152606490fd5b809250848092503d83116103db575b6103c681836108b7565b810103126103d7578190513861029c565b8680fd5b503d6103bc565b85513d89823e3d90fd5b600080fd5b50346101465760031990610120368301126101a65760043567ffffffffffffffff81116107b1576104269036906004016108f5565b9260243567ffffffffffffffff8111610146576104479036906004016108f5565b9360443567ffffffffffffffff81116101a6576104689036906004016108f5565b9060643560018060a01b03968782168092036107ad576084359780891689036107a95760a4359061ffff821682036103d7576104a261093c565b8751998160208c80829e83019280848c805192839101916104c292610994565b89519083016104d682848301858e01610994565b01906001600160601b03198760601b16908201524260348201520360348101825260540161050490826108b7565b5190206001548060881c62ffffff16763d602d80600a3d3981f3363d3d373d3d3d363d73000000178b526effffffffffffffffffffffffffffff199060781b166e5af43d82803e903d91602b57fd5bf3178d52603760098bf516998a15610765578a3b156107615788858c6105a3838b8f6105b3978f6105c29251998a9889978896633a3759f560e21b885261012060048901526101248801906109b7565b90848783030160248801526109b7565b918483030160448501526109b7565b8c6064830152898916608483015261ffff8b1660a483015260c43560c483015260e43560e48301526101043561010483015203925af1801561075757610728575b506002549768010000000000000000891015610714575060018801806002558810156106fe576106c88b976106ba61ffff966106ad8e9a8e7fd00ae14d33a44dad389c347ecc96ddd4a8d651a7cb5b83da8cd9ab530603440f9e60026000527f405787fa12a823e0f2b7631cc41b3ba8828b3321ca811111fa75cd3aa3bb5ace018d6001600160601b0360a01b825416179055519c8d9c8d528c61014091829101528c01906109b7565b8a81038b8f0152906109b7565b9088820360608a01526109b7565b9460808701521660a08501521660c083015260c43560e083015260e435610100830152610104356101208301520390a151908152f35b634e487b7160e01b600052603260045260246000fd5b634e487b7160e01b81526041600452602490fd5b67ffffffffffffffff81999299116107435789529638610603565b634e487b7160e01b82526041600452602482fd5b8a513d8b823e3d90fd5b8880fd5b895162461bcd60e51b8152600481018d9052601760248201527f455243313136373a2063726561746532206661696c65640000000000000000006044820152606490fd5b8580fd5b8480fd5b8380fd5b503461014657816003193601126101465760015490516001600160a01b039091168152602090f35b50903461022b578160031936011261022b576107f7610885565b916024359061080461093c565b81471061085157805190602082019082821067ffffffffffffffff83111761083d578493868580958195829552525af15061035c6109dc565b634e487b7160e01b85526041600452602485fd5b5162461bcd60e51b815260206004820152600e60248201526d20a12b1d103637bbafb2ba3432b960911b6044820152606490fd5b600435906001600160a01b03821682036103ec57565b6040810190811067ffffffffffffffff82111761036057604052565b90601f8019910116810190811067ffffffffffffffff82111761036057604052565b67ffffffffffffffff811161036057601f01601f191660200190565b81601f820112156103ec5780359061090c826108d9565b9261091a60405194856108b7565b828452602083830101116103ec57816000926020809301838601378301015290565b6000546001600160a01b0316330361095057565b606460405162461bcd60e51b815260206004820152602060248201527f4f776e61626c653a2063616c6c6572206973206e6f7420746865206f776e65726044820152fd5b60005b8381106109a75750506000910152565b8181015183820152602001610997565b906020916109d081518092818552858086019101610994565b601f01601f1916010190565b3d15610a07573d906109ed826108d9565b916109fb60405193846108b7565b82523d6000602084013e565b606090565b91929015610a6e5750815115610a20575090565b3b15610a295790565b60405162461bcd60e51b815260206004820152601d60248201527f416464726573733a2063616c6c20746f206e6f6e2d636f6e74726163740000006044820152606490fd5b825190915015610a815750805190602001fd5b60405162461bcd60e51b815260206004820152908190610aa59060248301906109b7565b0390fdfea26469706673582212207c9d2a27617de62f43cb960a03c217dd2d9774d29ec2f60e4d82eef5341f0b4564736f6c63430008110033",
  "linkReferences": {},
  "deployedLinkReferences": {}
}