{
  "_format": "hh-sol-artifact-1",
  "contractName": "VotingSlot",
  "sourceName": "contracts/VotingSlot.sol",
  "abi": [
    {
      "inputs": [
        {
          "internalType": "address",
          "name": "_newOwner",
          "type": "address"
        }
      ],
      "stateMutability": "nonpayable",
      "type": "constructor"
    },
    {
      "inputs": [],
      "name": "AlreadyInitialized",
      "type": "error"
    },
    {
      "inputs": [],
      "name": "AlreadyModerator",
      "type": "error"
    },
    {
      "inputs": [],
      "name": "Blocked",
      "type": "error"
    },
    {
      "inputs": [],
      "name": "NotModerator",
      "type": "error"
    },
    {
      "inputs": [],
      "name": "OnlyModeratorOrOwner",
      "type": "error"
    },
    {
      "inputs": [],
      "name": "ReachedMaximumFreeVotesPerDay",
      "type": "error"
    },
    {
      "anonymous": false,
      "inputs": [
        {
          "indexed": false,
          "internalType": "string",
          "name": "name",
          "type": "string"
        },
        {
          "indexed": false,
          "internalType": "string",
          "name": "description",
          "type": "string"
        },
        {
          "indexed": false,
          "internalType": "string",
          "name": "image",
          "type": "string"
        },
        {
          "indexed": false,
          "internalType": "address",
          "name": "newOwner",
          "type": "address"
        },
        {
          "indexed": false,
          "internalType": "address",
          "name": "stakingPool",
          "type": "address"
        },
        {
          "indexed": false,
          "internalType": "uint16",
          "name": "maxFreeVotesPerDay",
          "type": "uint16"
        },
        {
          "indexed": false,
          "internalType": "uint256",
          "name": "voteStartDate",
          "type": "uint256"
        },
        {
          "indexed": false,
          "internalType": "uint256",
          "name": "voteEndDate",
          "type": "uint256"
        },
        {
          "indexed": false,
          "internalType": "uint256",
          "name": "maxVoteWeightPerUser",
          "type": "uint256"
        }
      ],
      "name": "Initialized",
      "type": "event"
    },
    {
      "anonymous": false,
      "inputs": [
        {
          "indexed": true,
          "internalType": "address",
          "name": "previousOwner",
          "type": "address"
        },
        {
          "indexed": true,
          "internalType": "address",
          "name": "newOwner",
          "type": "address"
        }
      ],
      "name": "OwnershipTransferred",
      "type": "event"
    },
    {
      "anonymous": false,
      "inputs": [
        {
          "indexed": false,
          "internalType": "address",
          "name": "account",
          "type": "address"
        }
      ],
      "name": "Paused",
      "type": "event"
    },
    {
      "anonymous": false,
      "inputs": [
        {
          "indexed": true,
          "internalType": "bytes32",
          "name": "role",
          "type": "bytes32"
        },
        {
          "indexed": true,
          "internalType": "bytes32",
          "name": "previousAdminRole",
          "type": "bytes32"
        },
        {
          "indexed": true,
          "internalType": "bytes32",
          "name": "newAdminRole",
          "type": "bytes32"
        }
      ],
      "name": "RoleAdminChanged",
      "type": "event"
    },
    {
      "anonymous": false,
      "inputs": [
        {
          "indexed": true,
          "internalType": "bytes32",
          "name": "role",
          "type": "bytes32"
        },
        {
          "indexed": true,
          "internalType": "address",
          "name": "account",
          "type": "address"
        },
        {
          "indexed": true,
          "internalType": "address",
          "name": "sender",
          "type": "address"
        }
      ],
      "name": "RoleGranted",
      "type": "event"
    },
    {
      "anonymous": false,
      "inputs": [
        {
          "indexed": true,
          "internalType": "bytes32",
          "name": "role",
          "type": "bytes32"
        },
        {
          "indexed": true,
          "internalType": "address",
          "name": "account",
          "type": "address"
        },
        {
          "indexed": true,
          "internalType": "address",
          "name": "sender",
          "type": "address"
        }
      ],
      "name": "RoleRevoked",
      "type": "event"
    },
    {
      "anonymous": false,
      "inputs": [
        {
          "indexed": false,
          "internalType": "address",
          "name": "account",
          "type": "address"
        }
      ],
      "name": "Unpaused",
      "type": "event"
    },
    {
      "anonymous": false,
      "inputs": [
        {
          "indexed": false,
          "internalType": "uint256",
          "name": "amount",
          "type": "uint256"
        }
      ],
      "name": "UpdateNoOfNoVotes",
      "type": "event"
    },
    {
      "anonymous": false,
      "inputs": [
        {
          "indexed": false,
          "internalType": "uint256",
          "name": "amount",
          "type": "uint256"
        }
      ],
      "name": "UpdateNoOfYesVotes",
      "type": "event"
    },
    {
      "anonymous": false,
      "inputs": [
        {
          "indexed": false,
          "internalType": "string",
          "name": "description",
          "type": "string"
        }
      ],
      "name": "UpdatedDescription",
      "type": "event"
    },
    {
      "anonymous": false,
      "inputs": [
        {
          "indexed": false,
          "internalType": "string",
          "name": "image",
          "type": "string"
        }
      ],
      "name": "UpdatedImage",
      "type": "event"
    },
    {
      "anonymous": false,
      "inputs": [
        {
          "indexed": false,
          "internalType": "string",
          "name": "name",
          "type": "string"
        }
      ],
      "name": "UpdatedName",
      "type": "event"
    },
    {
      "anonymous": false,
      "inputs": [
        {
          "indexed": false,
          "internalType": "address",
          "name": "stakingPool",
          "type": "address"
        }
      ],
      "name": "UpdatedStakingPool",
      "type": "event"
    },
    {
      "anonymous": false,
      "inputs": [
        {
          "indexed": false,
          "internalType": "uint256",
          "name": "voteEndDate",
          "type": "uint256"
        }
      ],
      "name": "UpdatedVoteEndDate",
      "type": "event"
    },
    {
      "anonymous": false,
      "inputs": [
        {
          "indexed": false,
          "internalType": "uint256",
          "name": "voteStartDate",
          "type": "uint256"
        }
      ],
      "name": "UpdatedVoteStartDate",
      "type": "event"
    },
    {
      "anonymous": false,
      "inputs": [
        {
          "indexed": false,
          "internalType": "uint256",
          "name": "voteWeight",
          "type": "uint256"
        }
      ],
      "name": "UpdatedVoteWeight",
      "type": "event"
    },
    {
      "inputs": [],
      "name": "DEFAULT_ADMIN_ROLE",
      "outputs": [
        {
          "internalType": "bytes32",
          "name": "",
          "type": "bytes32"
        }
      ],
      "stateMutability": "view",
      "type": "function"
    },
    {
      "inputs": [],
      "name": "MOD_ROLE",
      "outputs": [
        {
          "internalType": "bytes32",
          "name": "",
          "type": "bytes32"
        }
      ],
      "stateMutability": "view",
      "type": "function"
    },
    {
      "inputs": [
        {
          "internalType": "address",
          "name": "_account",
          "type": "address"
        }
      ],
      "name": "blocked",
      "outputs": [
        {
          "internalType": "bool",
          "name": "",
          "type": "bool"
        }
      ],
      "stateMutability": "view",
      "type": "function"
    },
    {
      "inputs": [],
      "name": "changePauseState",
      "outputs": [],
      "stateMutability": "nonpayable",
      "type": "function"
    },
    {
      "inputs": [],
      "name": "currentDayToBytes32",
      "outputs": [
        {
          "internalType": "bytes32",
          "name": "",
          "type": "bytes32"
        }
      ],
      "stateMutability": "view",
      "type": "function"
    },
    {
      "inputs": [],
      "name": "description",
      "outputs": [
        {
          "internalType": "string",
          "name": "",
          "type": "string"
        }
      ],
      "stateMutability": "view",
      "type": "function"
    },
    {
      "inputs": [
        {
          "internalType": "bytes32",
          "name": "role",
          "type": "bytes32"
        }
      ],
      "name": "getRoleAdmin",
      "outputs": [
        {
          "internalType": "bytes32",
          "name": "",
          "type": "bytes32"
        }
      ],
      "stateMutability": "view",
      "type": "function"
    },
    {
      "inputs": [
        {
          "internalType": "address",
          "name": "_account",
          "type": "address"
        }
      ],
      "name": "grantModRole",
      "outputs": [],
      "stateMutability": "nonpayable",
      "type": "function"
    },
    {
      "inputs": [
        {
          "internalType": "address[]",
          "name": "_accounts",
          "type": "address[]"
        }
      ],
      "name": "grantModRoleToMany",
      "outputs": [],
      "stateMutability": "nonpayable",
      "type": "function"
    },
    {
      "inputs": [
        {
          "internalType": "bytes32",
          "name": "role",
          "type": "bytes32"
        },
        {
          "internalType": "address",
          "name": "account",
          "type": "address"
        }
      ],
      "name": "grantRole",
      "outputs": [],
      "stateMutability": "nonpayable",
      "type": "function"
    },
    {
      "inputs": [
        {
          "internalType": "bytes32",
          "name": "role",
          "type": "bytes32"
        },
        {
          "internalType": "address",
          "name": "account",
          "type": "address"
        }
      ],
      "name": "hasRole",
      "outputs": [
        {
          "internalType": "bool",
          "name": "",
          "type": "bool"
        }
      ],
      "stateMutability": "view",
      "type": "function"
    },
    {
      "inputs": [],
      "name": "image",
      "outputs": [
        {
          "internalType": "string",
          "name": "",
          "type": "string"
        }
      ],
      "stateMutability": "view",
      "type": "function"
    },
    {
      "inputs": [
        {
          "internalType": "string",
          "name": "_name",
          "type": "string"
        },
        {
          "internalType": "string",
          "name": "_description",
          "type": "string"
        },
        {
          "internalType": "string",
          "name": "_image",
          "type": "string"
        },
        {
          "internalType": "address",
          "name": "newOwner",
          "type": "address"
        },
        {
          "internalType": "contract IStakingPool",
          "name": "_stakingPool",
          "type": "address"
        },
        {
          "internalType": "uint16",
          "name": "_maxFreeVotesPerDay",
          "type": "uint16"
        },
        {
          "internalType": "uint256",
          "name": "_voteStartDate",
          "type": "uint256"
        },
        {
          "internalType": "uint256",
          "name": "_voteEndDate",
          "type": "uint256"
        },
        {
          "internalType": "uint256",
          "name": "_maxVoteWeightPerUser",
          "type": "uint256"
        }
      ],
      "name": "initialize",
      "outputs": [],
      "stateMutability": "nonpayable",
      "type": "function"
    },
    {
      "inputs": [],
      "name": "maxFreeVotesPerDay",
      "outputs": [
        {
          "internalType": "uint16",
          "name": "",
          "type": "uint16"
        }
      ],
      "stateMutability": "view",
      "type": "function"
    },
    {
      "inputs": [],
      "name": "name",
      "outputs": [
        {
          "internalType": "string",
          "name": "",
          "type": "string"
        }
      ],
      "stateMutability": "view",
      "type": "function"
    },
    {
      "inputs": [],
      "name": "negativeVoteWeight",
      "outputs": [
        {
          "internalType": "uint256",
          "name": "",
          "type": "uint256"
        }
      ],
      "stateMutability": "view",
      "type": "function"
    },
    {
      "inputs": [],
      "name": "owner",
      "outputs": [
        {
          "internalType": "address",
          "name": "",
          "type": "address"
        }
      ],
      "stateMutability": "view",
      "type": "function"
    },
    {
      "inputs": [],
      "name": "paused",
      "outputs": [
        {
          "internalType": "bool",
          "name": "",
          "type": "bool"
        }
      ],
      "stateMutability": "view",
      "type": "function"
    },
    {
      "inputs": [],
      "name": "positiveVoteWeight",
      "outputs": [
        {
          "internalType": "uint256",
          "name": "",
          "type": "uint256"
        }
      ],
      "stateMutability": "view",
      "type": "function"
    },
    {
      "inputs": [
        {
          "internalType": "address",
          "name": "_account",
          "type": "address"
        }
      ],
      "name": "removeModRole",
      "outputs": [],
      "stateMutability": "nonpayable",
      "type": "function"
    },
    {
      "inputs": [],
      "name": "renounceOwnership",
      "outputs": [],
      "stateMutability": "nonpayable",
      "type": "function"
    },
    {
      "inputs": [
        {
          "internalType": "bytes32",
          "name": "role",
          "type": "bytes32"
        },
        {
          "internalType": "address",
          "name": "account",
          "type": "address"
        }
      ],
      "name": "renounceRole",
      "outputs": [],
      "stateMutability": "nonpayable",
      "type": "function"
    },
    {
      "inputs": [
        {
          "internalType": "address",
          "name": "_token",
          "type": "address"
        },
        {
          "internalType": "uint256",
          "name": "_amount",
          "type": "uint256"
        },
        {
          "internalType": "address",
          "name": "_to",
          "type": "address"
        }
      ],
      "name": "retrieveERC20",
      "outputs": [],
      "stateMutability": "nonpayable",
      "type": "function"
    },
    {
      "inputs": [
        {
          "internalType": "address[]",
          "name": "_accounts",
          "type": "address[]"
        }
      ],
      "name": "revokeModRoleFromMany",
      "outputs": [],
      "stateMutability": "nonpayable",
      "type": "function"
    },
    {
      "inputs": [
        {
          "internalType": "bytes32",
          "name": "role",
          "type": "bytes32"
        },
        {
          "internalType": "address",
          "name": "account",
          "type": "address"
        }
      ],
      "name": "revokeRole",
      "outputs": [],
      "stateMutability": "nonpayable",
      "type": "function"
    },
    {
      "inputs": [
        {
          "internalType": "string",
          "name": "_description",
          "type": "string"
        }
      ],
      "name": "setDescription",
      "outputs": [],
      "stateMutability": "nonpayable",
      "type": "function"
    },
    {
      "inputs": [
        {
          "internalType": "string",
          "name": "_image",
          "type": "string"
        }
      ],
      "name": "setImage",
      "outputs": [],
      "stateMutability": "nonpayable",
      "type": "function"
    },
    {
      "inputs": [
        {
          "internalType": "uint16",
          "name": "_maxFreeVotesPerDay",
          "type": "uint16"
        }
      ],
      "name": "setMaxFreeVotesPerDay",
      "outputs": [],
      "stateMutability": "nonpayable",
      "type": "function"
    },
    {
      "inputs": [
        {
          "internalType": "uint256",
          "name": "_maxVoteWeightPerUser",
          "type": "uint256"
        }
      ],
      "name": "setMaxVoteWeightPerUser",
      "outputs": [],
      "stateMutability": "nonpayable",
      "type": "function"
    },
    {
      "inputs": [
        {
          "internalType": "string",
          "name": "_name",
          "type": "string"
        }
      ],
      "name": "setName",
      "outputs": [],
      "stateMutability": "nonpayable",
      "type": "function"
    },
    {
      "inputs": [
        {
          "internalType": "contract IStakingPool",
          "name": "_stakingPool",
          "type": "address"
        }
      ],
      "name": "setStakingPool",
      "outputs": [],
      "stateMutability": "nonpayable",
      "type": "function"
    },
    {
      "inputs": [
        {
          "internalType": "uint256",
          "name": "_voteEndDate",
          "type": "uint256"
        }
      ],
      "name": "setVoteEndDate",
      "outputs": [],
      "stateMutability": "nonpayable",
      "type": "function"
    },
    {
      "inputs": [
        {
          "internalType": "uint256",
          "name": "_voteStartDate",
          "type": "uint256"
        }
      ],
      "name": "setVoteStartDate",
      "outputs": [],
      "stateMutability": "nonpayable",
      "type": "function"
    },
    {
      "inputs": [],
      "name": "stakingPool",
      "outputs": [
        {
          "internalType": "contract IStakingPool",
          "name": "",
          "type": "address"
        }
      ],
      "stateMutability": "view",
      "type": "function"
    },
    {
      "inputs": [
        {
          "internalType": "bytes4",
          "name": "interfaceId",
          "type": "bytes4"
        }
      ],
      "name": "supportsInterface",
      "outputs": [
        {
          "internalType": "bool",
          "name": "",
          "type": "bool"
        }
      ],
      "stateMutability": "view",
      "type": "function"
    },
    {
      "inputs": [
        {
          "internalType": "address",
          "name": "_account",
          "type": "address"
        }
      ],
      "name": "switchBlockStatus",
      "outputs": [],
      "stateMutability": "nonpayable",
      "type": "function"
    },
    {
      "inputs": [
        {
          "internalType": "address",
          "name": "newOwner",
          "type": "address"
        }
      ],
      "name": "transferOwnership",
      "outputs": [],
      "stateMutability": "nonpayable",
      "type": "function"
    },
    {
      "inputs": [],
      "name": "voteEndDate",
      "outputs": [
        {
          "internalType": "uint256",
          "name": "",
          "type": "uint256"
        }
      ],
      "stateMutability": "view",
      "type": "function"
    },
    {
      "inputs": [],
      "name": "voteNo",
      "outputs": [],
      "stateMutability": "nonpayable",
      "type": "function"
    },
    {
      "inputs": [],
      "name": "voteStartDate",
      "outputs": [
        {
          "internalType": "uint256",
          "name": "",
          "type": "uint256"
        }
      ],
      "stateMutability": "view",
      "type": "function"
    },
    {
      "inputs": [],
      "name": "voteYes",
      "outputs": [],
      "stateMutability": "nonpayable",
      "type": "function"
    },
    {
      "inputs": [
        {
          "internalType": "address",
          "name": "",
          "type": "address"
        }
      ],
      "name": "votes",
      "outputs": [
        {
          "internalType": "uint256",
          "name": "",
          "type": "uint256"
        }
      ],
      "stateMutability": "view",
      "type": "function"
    }
  ],
  "bytecode": "0x6080346200008957601f62002e2938819003918201601f19168301916001600160401b038311848410176200008e578084926020946040528339810103126200008957516001600160a01b0381168103620000895762000079906200006433620000a4565b60ff19600254166002556001600355620000a4565b604051612d3d9081620000ec8239f35b600080fd5b634e487b7160e01b600052604160045260246000fd5b600080546001600160a01b039283166001600160a01b03198216811783559216907f8be0079c531659141344cd1fd0a4f28419497f9722a3daafe3b4186f6b6457e09080a356fe608080604052600436101561001357600080fd5b60003560e01c90816301ffc9a7146121285750806306fdde03146120945780630c56ae3b146120675780630e8fe6ed14611ff35780631985276b14611faa57806322e6541614611f64578063248a9ca314611f355780632f2ff15d14611efb5780633028f63a14611e5b57806335d9e40914611e3d57806336568abe14611dab57806341c12a7014611c2457806346e79ffc14611b1c578063475dfdc814611aa85780635c975abb14611a8557806368e1b43114611a67578063703c6d16146119f7578063715018a61461199e57806371adb5e6146117ce5780637284e4161461173a5780637c41370f146115495780638085ceaa146114d5578063877816391461144f5780638d7e0acb146114315780638da5cb5b146114085780638dcbc1821461139057806390c3f38f146111c557806390cf581c14610ff857806391d1485414610fab578063a217fddf14610f8f578063be489f9f14610f71578063c47f002714610d9b578063d547741f14610d5c578063d8bff5a514610d22578063dfaea7e614610cfd578063e135abe414610ce2578063e596219514610ca3578063e8dd67d4146103fc578063e932406f146103d9578063f2fde38b1461034c578063f3ccaac0146102785763f96c678c146101ed57600080fd5b3461027357602036600319011261027357610206612254565b61020e61278b565b610216612895565b61024a81610222612372565b600052600160205260406000209060018060a01b031660005260205260ff6040600020541690565b6102615761025f9061025a612372565b61269b565b005b60405163979119d560e01b8152600490fd5b600080fd5b3461027357600036600319011261027357604051600060065461029a8161217b565b8084529060019081811690811561032557506001146102dc575b6102d8846102c4818603826121eb565b60405191829160208352602083019061222f565b0390f35b600660009081529250600080516020612cc88339815191525b82841061030d5750505081016020016102c4826102b4565b805460208587018101919091529093019281016102f5565b60ff191660208087019190915292151560051b850190920192506102c491508390506102b4565b3461027357602036600319011261027357610365612254565b61036d61278b565b6001600160a01b038116156103855761025f906127e3565b60405162461bcd60e51b815260206004820152602660248201527f4f776e61626c653a206e6577206f776e657220697320746865207a65726f206160448201526564647265737360d01b6064820152608490fd5b346102735760003660031901126102735760206103f4612372565b604051908152f35b3461027357610120366003190112610273576004356001600160401b0381116102735761042d90369060040161229b565b6024356001600160401b0381116102735761044c90369060040161229b565b906044356001600160401b0381116102735761046c90369060040161229b565b906064356001600160a01b0381169003610273576084356001600160a01b03811690036102735761ffff60a4351660a435036102735760ff600f5416610c92576104be6104b7612372565b339061269b565b6104ca33610222612372565b8015610c7e575b6104da9061292f565b8051926001600160401b038411610a72576104f660045461217b565b601f8111610c15575b50602093601f8111600114610ba2578091929394600091610b97575b508160011b916000199060031b1c1916176004555b7f2319d1693ced5c256216527c7586842758cea48e90a4d4f69304f768834137986040516020815280610566602082018661222f565b0390a161057533610222612372565b8015610b83575b6105859061292f565b8051926001600160401b038411610a72576105a160055461217b565b601f8111610b1a575b50602093601f8111600114610aa7578091929394600091610a9c575b508160011b916000199060031b1c1916176005555b7f8e7ee28d3d3b0dd81239d1c0e48b77da9bfa4f63eb4db88c5789bd289d1ec4626040516020815280610611602082018661222f565b0390a161062033610222612372565b8015610a88575b6106309061292f565b80516001600160401b038111610a725761064b60065461217b565b601f8111610a09575b506020601f821160011461096c577f192cc1322b8fe74e0f381eb2f0e119dcbe941446a1a7ba28e170751db2c334fc94928261089c95936108b893600091610961575b508160011b916000199060031b1c1916176006555b7ff82c617ae111c7dc97cff5fbdc800e6de1cc79d739ef5a400a7c6746fa7a611a60405160208152806106e2602082018561222f565b0390a16106f133610222612372565b801561094d575b6107019061292f565b600f8054610100600160a81b03198116608435600881901b610100600160a81b03169182179093556040516001600160a01b03909316835290917f513ee920caa09c71ce9ebfe8d94110ab1ed6bb1870fd87cce129a2c8e8979ed490602090a161076d33610222612372565b8015610939575b61077d9061292f565b610100600160b81b03199091161760a43560a81b61ffff60a81b1617600f556107a833610222612372565b8015610925575b6107b89061292f565b60c4356007557f8f6e626fd72fbc5be13797576edf29d80e31d6b396fc85190028e1e19c455fa9602060405160c4358152a16107f633610222612372565b8015610911575b6108069061292f565b60e4356008557fde6c59c355067bf24092d3ed8616e15f3741ec2ce12f7cb2d817c7523ef6b4ce602060405160e4358152a161084433610222612372565b80156108fd575b6108549061292f565b6108aa610104359384600e5561086e60643561025a612372565b6108796064356127e3565b600160ff19600f541617600f55604051968796610120885261012088019061222f565b90868203602088015261222f565b90848203604086015261222f565b6001600160a01b036064358116606085015260843516608084015261ffff60a4351660a084015260c43560c084015260e43560e08401526101008301919091520390a1005b506000546001600160a01b0316331461084b565b506000546001600160a01b031633146107fd565b506000546001600160a01b031633146107af565b506000546001600160a01b03163314610774565b506000546001600160a01b031633146106f8565b905082015188610697565b6006600052600080516020612cc88339815191529060005b601f19841681106109f15750926001836108b8937f192cc1322b8fe74e0f381eb2f0e119dcbe941446a1a7ba28e170751db2c334fc989661089c9896601f198116106109d8575b5050811b016006556106ac565b84015160001960f88460031b161c1916905588806109cb565b90916020600181928588015181550193019101610984565b6006600052601f820160051c600080516020612cc88339815191520160208310610a5d575b601f820160051c600080516020612cc8833981519152018110610a515750610654565b60008155600101610a2e565b50600080516020612cc8833981519152610a2e565b634e487b7160e01b600052604160045260246000fd5b506000546001600160a01b03163314610627565b9050830151856105c6565b6005600052600080516020612ca883398151915260005b601f1983168110610b02575060019293949582601f19811610610ae9575b5050811b016005556105db565b85015160001960f88460031b161c191690558580610adc565b84870151825560209687019660019092019101610abe565b6005600052601f850160051c600080516020612ca88339815191520160208610610b6e575b601f820160051c600080516020612ca8833981519152018110610b6257506105aa565b60008155600101610b3f565b50600080516020612ca8833981519152610b3f565b506000546001600160a01b0316331461057c565b90508301518561051b565b6004600052600080516020612ce883398151915260005b601f1983168110610bfd575060019293949582601f19811610610be4575b5050811b01600455610530565b85015160001960f88460031b161c191690558580610bd7565b84870151825560209687019660019092019101610bb9565b6004600052601f850160051c600080516020612ce88339815191520160208610610c69575b601f820160051c600080516020612ce8833981519152018110610c5d57506104ff565b60008155600101610c3a565b50600080516020612ce8833981519152610c3a565b506000546001600160a01b031633146104d1565b60405162dc149f60e41b8152600490fd5b34610273576020366003190112610273576001600160a01b03610cc4612254565b16600052600a602052602060ff604060002054166040519015158152f35b346102735760003660031901126102735760206103f4612972565b3461027357600036600319011261027357602061ffff600f5460a81c16604051908152f35b34610273576020366003190112610273576001600160a01b03610d43612254565b1660005260096020526020604060002054604051908152f35b346102735760403660031901126102735761025f600435610d7b61226a565b90806000526001602052610d9660016040600020015461239c565b612715565b3461027357602080600319360112610273576001600160401b039060043582811161027357610dce90369060040161229b565b90610ddb33610222612372565b8015610f5d575b610deb9061292f565b8151928311610a7257610dff60045461217b565b601f8111610f0b575b508092601f8111600114610e7a57807f2319d1693ced5c256216527c7586842758cea48e90a4d4f69304f7688341379894600091610e6f575b508160011b916000199060031b1c1916176004555b610e6a60405192828493845283019061222f565b0390a1005b905083015185610e41565b601f198116936004600052600080516020612ce88339815191529460005b818110610ef457509482916001937f2319d1693ced5c256216527c7586842758cea48e90a4d4f69304f768834137989710610edb575b5050811b01600455610e56565b85015160001960f88460031b161c191690558580610ece565b858301518755600190960195918401918401610e98565b6004600052600080516020612ce8833981519152601f850160051c810191838610610f53575b601f0160051c01905b818110610f475750610e08565b60008155600101610f3a565b9091508190610f31565b506000546001600160a01b03163314610de2565b34610273576000366003190112610273576020600c54604051908152f35b3461027357600036600319011261027357602060405160008152f35b3461027357604036600319011261027357610fc461226a565b600435600052600160205260406000209060018060a01b0316600052602052602060ff604060002054166040519015158152f35b3461027357600036600319011261027357336000526020600a815260ff604060002054166111b357611028612895565b6110306128d9565b600754421015806111a7575b61104590612851565b600f54604051630ef40a6760e41b81523360048201528281602481600886901c6001600160a01b03165afa90811561119b5760009161116e575b50611088612972565b9133600052600b845260406000208360005284526040600020549115611148575b505033600052600982526040600020805490600182018092116111325755600c546001810180911161113257600c5533600052600b82526040600020906000528152604060002090815460018101809111611132577f05c702aa5f2f6a0bfc010218e724344d9a31301bdf6db75f7e9e28c4ef8844ec9255600c54604051908152a16001600355005b634e487b7160e01b600052601160045260246000fd5b60a81c61ffff16111561115c5782806110a9565b60405163042248ef60e51b8152600490fd5b90508281813d8311611194575b61118581836121eb565b8101031261027357518361107f565b503d61117b565b6040513d6000823e3d90fd5b5060085442111561103c565b60405163a5baf15160e01b8152600490fd5b3461027357602080600319360112610273576001600160401b0390600435828111610273576111f890369060040161229b565b9061120533610222612372565b801561137c575b6112159061292f565b8151928311610a7257600561122a815461217b565b601f811161132d575b508193601f811160011461129e57807f8e7ee28d3d3b0dd81239d1c0e48b77da9bfa4f63eb4db88c5789bd289d1ec46295600091611293575b508160011b916000199060031b1c1916179055610e6a60405192828493845283019061222f565b90508401518661126c565b601f1981169482600052600080516020612ca88339815191529560005b81811061131657509582916001937f8e7ee28d3d3b0dd81239d1c0e48b77da9bfa4f63eb4db88c5789bd289d1ec46298106112fd575b5050811b019055610e56565b86015160001960f88460031b161c1916905586806112f1565b8683015188556001909701969185019185016112bb565b81600052600080516020612ca8833981519152601f8601831c810191848710611372575b601f01831c01905b8181106113665750611233565b60008155600101611359565b9091508190611351565b506000546001600160a01b0316331461120c565b346102735761139e366122e2565b6113a661278b565b6113ae612895565b60005b815181101561025f576001600160a01b036113cc8284612bc5565b5116906113d761278b565b6113df612895565b6113eb82610222612372565b610261576113fe6114039261025a612372565b612bb6565b6113b1565b34610273576000366003190112610273576000546040516001600160a01b039091168152602090f35b34610273576000366003190112610273576020600d54604051908152f35b346102735761145d366122e2565b61146561278b565b61146d612895565b60005b815181101561025f576001600160a01b0361148b8284612bc5565b51169061149661278b565b61149e612895565b6114aa82610222612372565b156114c3576113fe6114be92610d96612372565b611470565b6040516375522eb560e11b8152600490fd5b34610273576020366003190112610273577fde6c59c355067bf24092d3ed8616e15f3741ec2ce12f7cb2d817c7523ef6b4ce602060043561151833610222612372565b8015611535575b6115289061292f565b80600855604051908152a1005b506000546001600160a01b0316331461151f565b3461027357606036600319011261027357611562612254565b6044356001600160a01b0381811692602435928490036102735761158833610222612372565b801561172d575b6115989061292f565b60405180926370a0823160e01b8252306004830152816024602095869386165afa90811561119b57600091611700575b5083116116a65760008061025f957f7472616e7366657228616464726573732c75696e74323536290000000000000085604051611604816121b5565b601981520152604051958587019163a9059cbb60e01b83526024880152604487015260448652611633866121d0565b60405195611640876121b5565b601e87527f416464726573733a206c6f772d6c6576656c2063616c6c206661696c6564000086880152519082855af1903d1561169d573d61168081612280565b9061168e60405192836121eb565b8152600081943d92013e612bd9565b60609250612bd9565b60405162461bcd60e51b815260048101839052602c60248201527f4142563a20616d6f756e745f677265617465725f7468616e5f7265747269657660448201526b61626c655f62616c616e636560a01b6064820152608490fd5b90508281813d8311611726575b61171781836121eb565b810103126102735751856115c8565b503d61170d565b506000548216331461158f565b3461027357600036600319011261027357604051600060055461175c8161217b565b808452906001908181169081156103255750600114611785576102d8846102c4818603826121eb565b600560009081529250600080516020612ca88339815191525b8284106117b65750505081016020016102c4826102b4565b8054602085870181019190915290930192810161179e565b3461027357602080600319360112610273576001600160401b03906004358281116102735761180190369060040161229b565b9061180e33610222612372565b801561198a575b61181e9061292f565b8151928311610a725761183260065461217b565b601f8111611938575b508092601f81116001146118a757807ff82c617ae111c7dc97cff5fbdc800e6de1cc79d739ef5a400a7c6746fa7a611a9460009161189c575b508160011b916000199060031b1c191617600655610e6a60405192828493845283019061222f565b905083015185611874565b601f198116936006600052600080516020612cc88339815191529460005b81811061192157509482916001937ff82c617ae111c7dc97cff5fbdc800e6de1cc79d739ef5a400a7c6746fa7a611a9710611908575b5050811b01600655610e56565b85015160001960f88460031b161c1916905585806118fb565b8583015187556001909601959184019184016118c5565b6006600052600080516020612cc8833981519152601f850160051c810191838610611980575b601f0160051c01905b818110611974575061183b565b60008155600101611967565b909150819061195e565b506000546001600160a01b03163314611815565b34610273576000366003190112610273576119b761278b565b600080546001600160a01b0319811682556001600160a01b03167f8be0079c531659141344cd1fd0a4f28419497f9722a3daafe3b4186f6b6457e08280a3005b346102735760203660031901126102735760043561ffff8116810361027357611a2233610222612372565b8015611a53575b611a329061292f565b600f805461ffff60a81b191660a89290921b61ffff60a81b16919091179055005b506000546001600160a01b03163314611a29565b34610273576000366003190112610273576020600754604051908152f35b3461027357600036600319011261027357602060ff600254166040519015158152f35b34610273576020366003190112610273577f8f6e626fd72fbc5be13797576edf29d80e31d6b396fc85190028e1e19c455fa96020600435611aeb33610222612372565b8015611b08575b611afb9061292f565b80600755604051908152a1005b506000546001600160a01b03163314611af2565b3461027357600036600319011261027357611b3933610222612372565b8015611c10575b611b499061292f565b60025460ff811615611bd1575060025460ff811615611b955760ff19166002557f5db9ee0a495bf2e6ff9c91a7834c1ba4fdd244a5e8aa4e537bd38aeae4b073aa6020604051338152a1005b60405162461bcd60e51b815260206004820152601460248201527314185d5cd8589b194e881b9bdd081c185d5cd95960621b6044820152606490fd5b600190611bdc612895565b60ff1916176002557f62e78cea01bee320cd4e420270b5ea74000d11b0c9f74754ebdbfc544b05a2586020604051338152a1005b506000546001600160a01b03163314611b40565b3461027357600036600319011261027357336000526020600a815260ff604060002054166111b357611c54612895565b611c5c6128d9565b60075442101580611d9f575b611c7190612851565b600f54604051630ef40a6760e41b81523360048201528281602481600886901c6001600160a01b03165afa90811561119b57600091611d72575b50611cb4612972565b9133600052600b845260406000208360005284526040600020549115611d5e575b505033600052600982526040600020805490600182018092116111325755600d546001810180911161113257600d5533600052600b82526040600020906000528152604060002090815460018101809111611132577fbfb7f61d27ed48256e28b360d14577d3231eb3c8e8d5b97b12d2d0eeb7c125a59255600d54604051908152a16001600355005b60a81c61ffff16111561115c578280611cd5565b90508281813d8311611d98575b611d8981836121eb565b81010312610273575183611cab565b503d611d7f565b50600854421115611c68565b3461027357604036600319011261027357611dc461226a565b336001600160a01b03821603611de05761025f90600435612715565b60405162461bcd60e51b815260206004820152602f60248201527f416363657373436f6e74726f6c3a2063616e206f6e6c792072656e6f756e636560448201526e103937b632b9903337b91039b2b63360891b6064820152608490fd5b34610273576000366003190112610273576020600854604051908152f35b34610273576020366003190112610273577f513ee920caa09c71ce9ebfe8d94110ab1ed6bb1870fd87cce129a2c8e8979ed46020611e97612254565b611ea333610222612372565b8015611ee7575b611eb39061292f565b600f8054610100600160a81b031916600883901b610100600160a81b03161790556040516001600160a01b039091168152a1005b506000546001600160a01b03163314611eaa565b346102735760403660031901126102735761025f600435611f1a61226a565b9080600052600160205261025a60016040600020015461239c565b346102735760203660031901126102735760043560005260016020526020600160406000200154604051908152f35b3461027357602036600319011261027357611f7d612254565b611f8561278b565b611f8d612895565b611f9981610222612372565b156114c35761025f90610d96612372565b3461027357602036600319011261027357611fc733610222612372565b8015611fdf575b611fd79061292f565b600435600e55005b506000546001600160a01b03163314611fce565b346102735760203660031901126102735761200c612254565b61201833610222612372565b8015612053575b6120289061292f565b6001600160a01b03166000908152600a60205260409020805460ff818116151660ff19909116179055005b506000546001600160a01b0316331461201f565b3461027357600036600319011261027357600f5460405160089190911c6001600160a01b03168152602090f35b346102735760003660031901126102735760405160006004546120b68161217b565b8084529060019081811690811561032557506001146120df576102d8846102c4818603826121eb565b600460009081529250600080516020612ce88339815191525b8284106121105750505081016020016102c4826102b4565b805460208587018101919091529093019281016120f8565b34610273576020366003190112610273576004359063ffffffff60e01b821680920361027357602091637965db0b60e01b811490811561216a575b5015158152f35b6301ffc9a760e01b14905083612163565b90600182811c921680156121ab575b602083101461219557565b634e487b7160e01b600052602260045260246000fd5b91607f169161218a565b604081019081106001600160401b03821117610a7257604052565b608081019081106001600160401b03821117610a7257604052565b90601f801991011681019081106001600160401b03821117610a7257604052565b60005b83811061221f5750506000910152565b818101518382015260200161220f565b906020916122488151809281855285808601910161220c565b601f01601f1916010190565b600435906001600160a01b038216820361027357565b602435906001600160a01b038216820361027357565b6001600160401b038111610a7257601f01601f191660200190565b81601f82011215610273578035906122b282612280565b926122c060405194856121eb565b8284526020838301011161027357816000926020809301838601378301015290565b602080600319830112610273576001600160401b03916004358381116102735781602382011215610273578060040135938411610a72578360051b906040519461232e858401876121eb565b855260248486019282010192831161027357602401905b828210612353575050505090565b81356001600160a01b0381168103610273578152908301908301612345565b60405160208101906826a7a222a920aa27a960b91b825260098152612396816121b5565b51902090565b6000818152600191602091838352604093848220338352845260ff8583205416156123c8575050505050565b33855193606085018581106001600160401b03821117612687578752602a8552858501918736843785511561267357603083538551841015612673576078602187015360295b84811161260957506125c757865192612426846121d0565b604284528684019460603687378451156125b3576030865384518210156125b35790607860218601536041915b81831161254557505050612503576124ff9386936124e3936124d46048946124ab9a519a8b957f416363657373436f6e74726f6c3a206163636f756e74200000000000000000008c880152518092603788019061220c565b8401917001034b99036b4b9b9b4b733903937b6329607d1b60378401525180938684019061220c565b010360288101875201856121eb565b5192839262461bcd60e51b84526004840152602483019061222f565b0390fd5b60648587519062461bcd60e51b825280600483015260248201527f537472696e67733a20686578206c656e67746820696e73756666696369656e746044820152fd5b909192600f8116601081101561259f576f181899199a1a9b1b9c1cb0b131b232b360811b901a612575858861282a565b5360041c92801561258b57600019019190612453565b634e487b7160e01b82526011600452602482fd5b634e487b7160e01b83526032600452602483fd5b634e487b7160e01b81526032600452602490fd5b60648688519062461bcd60e51b825280600483015260248201527f537472696e67733a20686578206c656e67746820696e73756666696369656e746044820152fd5b90600f8116601081101561265f576f181899199a1a9b1b9c1cb0b131b232b360811b901a612637838961282a565b5360041c90801561264b576000190161240e565b634e487b7160e01b86526011600452602486fd5b634e487b7160e01b87526032600452602487fd5b634e487b7160e01b85526032600452602485fd5b634e487b7160e01b85526041600452602485fd5b906000918083526001602052604083209160018060a01b03169182845260205260ff604084205416156126cd57505050565b80835260016020526040832082845260205260408320600160ff198254161790557f2f8788117e7eff1d82e926ec794901d17c78024a50270940304540a733656f0d339380a4565b906000918083526001602052604083209160018060a01b03169182845260205260ff60408420541661274657505050565b8083526001602052604083208284526020526040832060ff1981541690557ff6391f5c32d9c69d2a47ea670b442974b53935d1edc7fd64eb21e047a839171b339380a4565b6000546001600160a01b0316330361279f57565b606460405162461bcd60e51b815260206004820152602060248201527f4f776e61626c653a2063616c6c6572206973206e6f7420746865206f776e65726044820152fd5b600080546001600160a01b039283166001600160a01b03198216811783559216907f8be0079c531659141344cd1fd0a4f28419497f9722a3daafe3b4186f6b6457e09080a3565b90815181101561283b570160200190565b634e487b7160e01b600052603260045260246000fd5b1561285857565b60405162461bcd60e51b8152602060048201526015602482015274566f74696e67506572696f644e6f7441637469766560581b6044820152606490fd5b60ff600254166128a157565b60405162461bcd60e51b815260206004820152601060248201526f14185d5cd8589b194e881c185d5cd95960821b6044820152606490fd5b6002600354146128ea576002600355565b60405162461bcd60e51b815260206004820152601f60248201527f5265656e7472616e637947756172643a207265656e7472616e742063616c6c006044820152606490fd5b1561293657565b60405162461bcd60e51b815260206004820152601460248201527327b7363ca6b7b232b930ba37b927b927bbb732b960611b6044820152606490fd5b600062010bd962015180420481810191838212801591841291821691151617612ba2576226496501908262253d8c8312911290801582169115161761258b578060021b6004918282058103612b8f5762023ab1809205918281029081058303612b7c57600381019085600383129112908015821691151617612b7c5790836129fb920590612c8e565b6001810160018112858312908015821691151617612b7c57610fa09080820291820503612b7c5762164b099005906105b58281029081058303612b69579084612a45920590612c8e565b91601f83019285601f85129112908015821691151617612b7c578260500292605084058103612b695761098f809405938481029081058503612b5657906050612a8f920590612c8e565b94600b840593600281019082600283129112908015821691151617612b435784600c0290600c82058603612b305790612ac791612c8e565b946030198301928313600116612b1d5782606402926064840503612b1d575050612afa9291612af591612c72565b612c72565b9160405191602083019384526040830152606082015260608152612396816121d0565b634e487b7160e01b825260119052602490fd5b634e487b7160e01b835260118752602483fd5b634e487b7160e01b825260118652602482fd5b634e487b7160e01b875260118652602487fd5b634e487b7160e01b865260118552602486fd5b634e487b7160e01b855260118452602485fd5b634e487b7160e01b845260118352602484fd5b634e487b7160e01b83526011600452602483fd5b60001981146111325760010190565b805182101561283b5760209160051b010190565b91929015612c3b5750815115612bed575090565b3b15612bf65790565b60405162461bcd60e51b815260206004820152601d60248201527f416464726573733a2063616c6c20746f206e6f6e2d636f6e74726163740000006044820152606490fd5b825190915015612c4e5750805190602001fd5b60405162461bcd60e51b8152602060048201529081906124ff90602483019061222f565b9190916000838201938412911290801582169115161761113257565b818103929160001380158285131691841216176111325756fe036b6384b5eca791c62761152d0c79bb0604c104a5fb6f4eb0703f3154bb3db0f652222313e28459528d920b65115c16c04f3efc82aaedc97be59f3f377c0d3f8a35acfbc15ff81a39ae7d344fd709f28e8600b4aa8c65c6b64bfe7fe36bd19ba2646970667358221220433dc2059d914e21a45eb037209078611885e6200b454a1c16d350b7c6b9b7f964736f6c63430008110033",
  "linkReferences": {},
  "deployedLinkReferences": {}
}