{
  "_format": "hh-sol-artifact-1",
  "contractName": "VotingSlot",
  "sourceName": "contracts/VotingSlot.sol",
  "abi": [
    {
      "inputs": [
        {
          "internalType": "address",
          "name": "_newOwner",
          "type": "address"
        }
      ],
      "stateMutability": "nonpayable",
      "type": "constructor"
    },
    {
      "inputs": [],
      "name": "AlreadyInitialized",
      "type": "error"
    },
    {
      "inputs": [],
      "name": "AlreadyModerator",
      "type": "error"
    },
    {
      "inputs": [],
      "name": "Blocked",
      "type": "error"
    },
    {
      "inputs": [],
      "name": "NotModerator",
      "type": "error"
    },
    {
      "inputs": [],
      "name": "OnlyModeratorOrOwner",
      "type": "error"
    },
    {
      "inputs": [],
      "name": "ReachedMaximumFreeVotesPerDay",
      "type": "error"
    },
    {
      "anonymous": false,
      "inputs": [
        {
          "indexed": false,
          "internalType": "string",
          "name": "name",
          "type": "string"
        },
        {
          "indexed": false,
          "internalType": "string",
          "name": "description",
          "type": "string"
        },
        {
          "indexed": false,
          "internalType": "string",
          "name": "image",
          "type": "string"
        },
        {
          "indexed": false,
          "internalType": "address",
          "name": "newOwner",
          "type": "address"
        },
        {
          "indexed": false,
          "internalType": "address",
          "name": "stakingPool",
          "type": "address"
        }
      ],
      "name": "Initialized",
      "type": "event"
    },
    {
      "anonymous": false,
      "inputs": [
        {
          "indexed": true,
          "internalType": "address",
          "name": "previousOwner",
          "type": "address"
        },
        {
          "indexed": true,
          "internalType": "address",
          "name": "newOwner",
          "type": "address"
        }
      ],
      "name": "OwnershipTransferred",
      "type": "event"
    },
    {
      "anonymous": false,
      "inputs": [
        {
          "indexed": false,
          "internalType": "address",
          "name": "account",
          "type": "address"
        }
      ],
      "name": "Paused",
      "type": "event"
    },
    {
      "anonymous": false,
      "inputs": [
        {
          "indexed": true,
          "internalType": "bytes32",
          "name": "role",
          "type": "bytes32"
        },
        {
          "indexed": true,
          "internalType": "bytes32",
          "name": "previousAdminRole",
          "type": "bytes32"
        },
        {
          "indexed": true,
          "internalType": "bytes32",
          "name": "newAdminRole",
          "type": "bytes32"
        }
      ],
      "name": "RoleAdminChanged",
      "type": "event"
    },
    {
      "anonymous": false,
      "inputs": [
        {
          "indexed": true,
          "internalType": "bytes32",
          "name": "role",
          "type": "bytes32"
        },
        {
          "indexed": true,
          "internalType": "address",
          "name": "account",
          "type": "address"
        },
        {
          "indexed": true,
          "internalType": "address",
          "name": "sender",
          "type": "address"
        }
      ],
      "name": "RoleGranted",
      "type": "event"
    },
    {
      "anonymous": false,
      "inputs": [
        {
          "indexed": true,
          "internalType": "bytes32",
          "name": "role",
          "type": "bytes32"
        },
        {
          "indexed": true,
          "internalType": "address",
          "name": "account",
          "type": "address"
        },
        {
          "indexed": true,
          "internalType": "address",
          "name": "sender",
          "type": "address"
        }
      ],
      "name": "RoleRevoked",
      "type": "event"
    },
    {
      "anonymous": false,
      "inputs": [
        {
          "indexed": false,
          "internalType": "address",
          "name": "account",
          "type": "address"
        }
      ],
      "name": "Unpaused",
      "type": "event"
    },
    {
      "anonymous": false,
      "inputs": [
        {
          "indexed": false,
          "internalType": "uint256",
          "name": "amount",
          "type": "uint256"
        }
      ],
      "name": "UpdateNoOfNoVotes",
      "type": "event"
    },
    {
      "anonymous": false,
      "inputs": [
        {
          "indexed": false,
          "internalType": "uint256",
          "name": "amount",
          "type": "uint256"
        }
      ],
      "name": "UpdateNoOfYesVotes",
      "type": "event"
    },
    {
      "anonymous": false,
      "inputs": [
        {
          "indexed": false,
          "internalType": "string",
          "name": "description",
          "type": "string"
        }
      ],
      "name": "UpdatedDescription",
      "type": "event"
    },
    {
      "anonymous": false,
      "inputs": [
        {
          "indexed": false,
          "internalType": "string",
          "name": "image",
          "type": "string"
        }
      ],
      "name": "UpdatedImage",
      "type": "event"
    },
    {
      "anonymous": false,
      "inputs": [
        {
          "indexed": false,
          "internalType": "string",
          "name": "name",
          "type": "string"
        }
      ],
      "name": "UpdatedName",
      "type": "event"
    },
    {
      "anonymous": false,
      "inputs": [
        {
          "indexed": false,
          "internalType": "address",
          "name": "stakingPool",
          "type": "address"
        }
      ],
      "name": "UpdatedStakingPool",
      "type": "event"
    },
    {
      "anonymous": false,
      "inputs": [
        {
          "indexed": false,
          "internalType": "uint256",
          "name": "voteEndDate",
          "type": "uint256"
        }
      ],
      "name": "UpdatedVoteEndDate",
      "type": "event"
    },
    {
      "anonymous": false,
      "inputs": [
        {
          "indexed": false,
          "internalType": "uint256",
          "name": "voteStartDate",
          "type": "uint256"
        }
      ],
      "name": "UpdatedVoteStartDate",
      "type": "event"
    },
    {
      "anonymous": false,
      "inputs": [
        {
          "indexed": false,
          "internalType": "uint256",
          "name": "voteWeight",
          "type": "uint256"
        }
      ],
      "name": "UpdatedVoteWeight",
      "type": "event"
    },
    {
      "inputs": [],
      "name": "DEFAULT_ADMIN_ROLE",
      "outputs": [
        {
          "internalType": "bytes32",
          "name": "",
          "type": "bytes32"
        }
      ],
      "stateMutability": "view",
      "type": "function"
    },
    {
      "inputs": [],
      "name": "MOD_ROLE",
      "outputs": [
        {
          "internalType": "bytes32",
          "name": "",
          "type": "bytes32"
        }
      ],
      "stateMutability": "view",
      "type": "function"
    },
    {
      "inputs": [
        {
          "internalType": "address",
          "name": "_account",
          "type": "address"
        }
      ],
      "name": "blocked",
      "outputs": [
        {
          "internalType": "bool",
          "name": "",
          "type": "bool"
        }
      ],
      "stateMutability": "view",
      "type": "function"
    },
    {
      "inputs": [],
      "name": "changePauseState",
      "outputs": [],
      "stateMutability": "nonpayable",
      "type": "function"
    },
    {
      "inputs": [],
      "name": "currentDayToBytes32",
      "outputs": [
        {
          "internalType": "bytes32",
          "name": "",
          "type": "bytes32"
        }
      ],
      "stateMutability": "view",
      "type": "function"
    },
    {
      "inputs": [],
      "name": "description",
      "outputs": [
        {
          "internalType": "string",
          "name": "",
          "type": "string"
        }
      ],
      "stateMutability": "view",
      "type": "function"
    },
    {
      "inputs": [
        {
          "internalType": "bytes32",
          "name": "role",
          "type": "bytes32"
        }
      ],
      "name": "getRoleAdmin",
      "outputs": [
        {
          "internalType": "bytes32",
          "name": "",
          "type": "bytes32"
        }
      ],
      "stateMutability": "view",
      "type": "function"
    },
    {
      "inputs": [
        {
          "internalType": "address",
          "name": "_account",
          "type": "address"
        }
      ],
      "name": "grantModRole",
      "outputs": [],
      "stateMutability": "nonpayable",
      "type": "function"
    },
    {
      "inputs": [
        {
          "internalType": "address[]",
          "name": "_accounts",
          "type": "address[]"
        }
      ],
      "name": "grantModRoleToMany",
      "outputs": [],
      "stateMutability": "nonpayable",
      "type": "function"
    },
    {
      "inputs": [
        {
          "internalType": "bytes32",
          "name": "role",
          "type": "bytes32"
        },
        {
          "internalType": "address",
          "name": "account",
          "type": "address"
        }
      ],
      "name": "grantRole",
      "outputs": [],
      "stateMutability": "nonpayable",
      "type": "function"
    },
    {
      "inputs": [
        {
          "internalType": "bytes32",
          "name": "role",
          "type": "bytes32"
        },
        {
          "internalType": "address",
          "name": "account",
          "type": "address"
        }
      ],
      "name": "hasRole",
      "outputs": [
        {
          "internalType": "bool",
          "name": "",
          "type": "bool"
        }
      ],
      "stateMutability": "view",
      "type": "function"
    },
    {
      "inputs": [],
      "name": "image",
      "outputs": [
        {
          "internalType": "string",
          "name": "",
          "type": "string"
        }
      ],
      "stateMutability": "view",
      "type": "function"
    },
    {
      "inputs": [
        {
          "internalType": "string",
          "name": "_name",
          "type": "string"
        },
        {
          "internalType": "string",
          "name": "_description",
          "type": "string"
        },
        {
          "internalType": "string",
          "name": "_image",
          "type": "string"
        },
        {
          "internalType": "address",
          "name": "newOwner",
          "type": "address"
        },
        {
          "internalType": "contract IStakingPool",
          "name": "_stakingPool",
          "type": "address"
        },
        {
          "internalType": "uint16",
          "name": "_maxFreeVotesPerDay",
          "type": "uint16"
        },
        {
          "internalType": "uint256",
          "name": "_voteStartDate",
          "type": "uint256"
        },
        {
          "internalType": "uint256",
          "name": "_voteEndDate",
          "type": "uint256"
        },
        {
          "internalType": "uint256",
          "name": "_maxVoteWeightPerUser",
          "type": "uint256"
        }
      ],
      "name": "initialize",
      "outputs": [],
      "stateMutability": "nonpayable",
      "type": "function"
    },
    {
      "inputs": [],
      "name": "maxFreeVotesPerDay",
      "outputs": [
        {
          "internalType": "uint16",
          "name": "",
          "type": "uint16"
        }
      ],
      "stateMutability": "view",
      "type": "function"
    },
    {
      "inputs": [],
      "name": "name",
      "outputs": [
        {
          "internalType": "string",
          "name": "",
          "type": "string"
        }
      ],
      "stateMutability": "view",
      "type": "function"
    },
    {
      "inputs": [],
      "name": "negativeVoteWeight",
      "outputs": [
        {
          "internalType": "uint256",
          "name": "",
          "type": "uint256"
        }
      ],
      "stateMutability": "view",
      "type": "function"
    },
    {
      "inputs": [],
      "name": "owner",
      "outputs": [
        {
          "internalType": "address",
          "name": "",
          "type": "address"
        }
      ],
      "stateMutability": "view",
      "type": "function"
    },
    {
      "inputs": [],
      "name": "paused",
      "outputs": [
        {
          "internalType": "bool",
          "name": "",
          "type": "bool"
        }
      ],
      "stateMutability": "view",
      "type": "function"
    },
    {
      "inputs": [],
      "name": "positiveVoteWeight",
      "outputs": [
        {
          "internalType": "uint256",
          "name": "",
          "type": "uint256"
        }
      ],
      "stateMutability": "view",
      "type": "function"
    },
    {
      "inputs": [
        {
          "internalType": "address",
          "name": "_account",
          "type": "address"
        }
      ],
      "name": "removeModRole",
      "outputs": [],
      "stateMutability": "nonpayable",
      "type": "function"
    },
    {
      "inputs": [],
      "name": "renounceOwnership",
      "outputs": [],
      "stateMutability": "nonpayable",
      "type": "function"
    },
    {
      "inputs": [
        {
          "internalType": "bytes32",
          "name": "role",
          "type": "bytes32"
        },
        {
          "internalType": "address",
          "name": "account",
          "type": "address"
        }
      ],
      "name": "renounceRole",
      "outputs": [],
      "stateMutability": "nonpayable",
      "type": "function"
    },
    {
      "inputs": [
        {
          "internalType": "address",
          "name": "_token",
          "type": "address"
        },
        {
          "internalType": "uint256",
          "name": "_amount",
          "type": "uint256"
        },
        {
          "internalType": "address",
          "name": "_to",
          "type": "address"
        }
      ],
      "name": "retrieveERC20",
      "outputs": [],
      "stateMutability": "nonpayable",
      "type": "function"
    },
    {
      "inputs": [
        {
          "internalType": "address[]",
          "name": "_accounts",
          "type": "address[]"
        }
      ],
      "name": "revokeModRoleFromMany",
      "outputs": [],
      "stateMutability": "nonpayable",
      "type": "function"
    },
    {
      "inputs": [
        {
          "internalType": "bytes32",
          "name": "role",
          "type": "bytes32"
        },
        {
          "internalType": "address",
          "name": "account",
          "type": "address"
        }
      ],
      "name": "revokeRole",
      "outputs": [],
      "stateMutability": "nonpayable",
      "type": "function"
    },
    {
      "inputs": [
        {
          "internalType": "string",
          "name": "_description",
          "type": "string"
        }
      ],
      "name": "setDescription",
      "outputs": [],
      "stateMutability": "nonpayable",
      "type": "function"
    },
    {
      "inputs": [
        {
          "internalType": "string",
          "name": "_image",
          "type": "string"
        }
      ],
      "name": "setImage",
      "outputs": [],
      "stateMutability": "nonpayable",
      "type": "function"
    },
    {
      "inputs": [
        {
          "internalType": "uint16",
          "name": "_maxFreeVotesPerDay",
          "type": "uint16"
        }
      ],
      "name": "setMaxFreeVotesPerDay",
      "outputs": [],
      "stateMutability": "nonpayable",
      "type": "function"
    },
    {
      "inputs": [
        {
          "internalType": "uint256",
          "name": "_maxVoteWeightPerUser",
          "type": "uint256"
        }
      ],
      "name": "setMaxVoteWeightPerUser",
      "outputs": [],
      "stateMutability": "nonpayable",
      "type": "function"
    },
    {
      "inputs": [
        {
          "internalType": "string",
          "name": "_name",
          "type": "string"
        }
      ],
      "name": "setName",
      "outputs": [],
      "stateMutability": "nonpayable",
      "type": "function"
    },
    {
      "inputs": [
        {
          "internalType": "contract IStakingPool",
          "name": "_stakingPool",
          "type": "address"
        }
      ],
      "name": "setStakingPool",
      "outputs": [],
      "stateMutability": "nonpayable",
      "type": "function"
    },
    {
      "inputs": [
        {
          "internalType": "uint256",
          "name": "_voteEndDate",
          "type": "uint256"
        }
      ],
      "name": "setVoteEndDate",
      "outputs": [],
      "stateMutability": "nonpayable",
      "type": "function"
    },
    {
      "inputs": [
        {
          "internalType": "uint256",
          "name": "_voteStartDate",
          "type": "uint256"
        }
      ],
      "name": "setVoteStartDate",
      "outputs": [],
      "stateMutability": "nonpayable",
      "type": "function"
    },
    {
      "inputs": [],
      "name": "stakingPool",
      "outputs": [
        {
          "internalType": "contract IStakingPool",
          "name": "",
          "type": "address"
        }
      ],
      "stateMutability": "view",
      "type": "function"
    },
    {
      "inputs": [
        {
          "internalType": "bytes4",
          "name": "interfaceId",
          "type": "bytes4"
        }
      ],
      "name": "supportsInterface",
      "outputs": [
        {
          "internalType": "bool",
          "name": "",
          "type": "bool"
        }
      ],
      "stateMutability": "view",
      "type": "function"
    },
    {
      "inputs": [
        {
          "internalType": "address",
          "name": "_account",
          "type": "address"
        }
      ],
      "name": "switchBlockStatus",
      "outputs": [],
      "stateMutability": "nonpayable",
      "type": "function"
    },
    {
      "inputs": [
        {
          "internalType": "address",
          "name": "newOwner",
          "type": "address"
        }
      ],
      "name": "transferOwnership",
      "outputs": [],
      "stateMutability": "nonpayable",
      "type": "function"
    },
    {
      "inputs": [],
      "name": "voteEndDate",
      "outputs": [
        {
          "internalType": "uint256",
          "name": "",
          "type": "uint256"
        }
      ],
      "stateMutability": "view",
      "type": "function"
    },
    {
      "inputs": [],
      "name": "voteNo",
      "outputs": [],
      "stateMutability": "nonpayable",
      "type": "function"
    },
    {
      "inputs": [],
      "name": "voteStartDate",
      "outputs": [
        {
          "internalType": "uint256",
          "name": "",
          "type": "uint256"
        }
      ],
      "stateMutability": "view",
      "type": "function"
    },
    {
      "inputs": [],
      "name": "voteYes",
      "outputs": [],
      "stateMutability": "nonpayable",
      "type": "function"
    },
    {
      "inputs": [
        {
          "internalType": "address",
          "name": "",
          "type": "address"
        }
      ],
      "name": "votes",
      "outputs": [
        {
          "internalType": "uint256",
          "name": "",
          "type": "uint256"
        }
      ],
      "stateMutability": "view",
      "type": "function"
    }
  ],
  "bytecode": "0x6080346200008957601f62002dff38819003918201601f19168301916001600160401b038311848410176200008e578084926020946040528339810103126200008957516001600160a01b0381168103620000895762000079906200006433620000a4565b60ff19600254166002556001600355620000a4565b604051612d139081620000ec8239f35b600080fd5b634e487b7160e01b600052604160045260246000fd5b600080546001600160a01b039283166001600160a01b03198216811783559216907f8be0079c531659141344cd1fd0a4f28419497f9722a3daafe3b4186f6b6457e09080a356fe608080604052600436101561001357600080fd5b60003560e01c90816301ffc9a7146120fe5750806306fdde031461206a5780630c56ae3b1461203d5780630e8fe6ed14611fc95780631985276b14611f8057806322e6541614611f3a578063248a9ca314611f0b5780632f2ff15d14611ed15780633028f63a14611e3157806335d9e40914611e1357806336568abe14611d8157806341c12a7014611bfa57806346e79ffc14611af2578063475dfdc814611a7e5780635c975abb14611a5b57806368e1b43114611a3d578063703c6d16146119cd578063715018a61461197457806371adb5e6146117a45780637284e416146117105780637c41370f1461151f5780638085ceaa146114ab57806387781639146114255780638d7e0acb146114075780638da5cb5b146113de5780638dcbc1821461136657806390c3f38f1461119b57806390cf581c14610fce57806391d1485414610f81578063a217fddf14610f65578063be489f9f14610f47578063c47f002714610d71578063d547741f14610d32578063d8bff5a514610cf8578063dfaea7e614610cd3578063e135abe414610cb8578063e596219514610c79578063e8dd67d4146103fc578063e932406f146103d9578063f2fde38b1461034c578063f3ccaac0146102785763f96c678c146101ed57600080fd5b346102735760203660031901126102735761020661222a565b61020e612761565b61021661286b565b61024a81610222612348565b600052600160205260406000209060018060a01b031660005260205260ff6040600020541690565b6102615761025f9061025a612348565b612671565b005b60405163979119d560e01b8152600490fd5b600080fd5b3461027357600036600319011261027357604051600060065461029a81612151565b8084529060019081811690811561032557506001146102dc575b6102d8846102c4818603826121c1565b604051918291602083526020830190612205565b0390f35b600660009081529250600080516020612c9e8339815191525b82841061030d5750505081016020016102c4826102b4565b805460208587018101919091529093019281016102f5565b60ff191660208087019190915292151560051b850190920192506102c491508390506102b4565b346102735760203660031901126102735761036561222a565b61036d612761565b6001600160a01b038116156103855761025f906127b9565b60405162461bcd60e51b815260206004820152602660248201527f4f776e61626c653a206e6577206f776e657220697320746865207a65726f206160448201526564647265737360d01b6064820152608490fd5b346102735760003660031901126102735760206103f4612348565b604051908152f35b3461027357610120366003190112610273576004356001600160401b0381116102735761042d903690600401612271565b6024356001600160401b0381116102735761044c903690600401612271565b6044356001600160401b0381116102735761046b903690600401612271565b916064356001600160a01b0381169003610273576084356001600160a01b03811690036102735761ffff60a4351660a435036102735760ff600f5416610c68576104bd6104b6612348565b3390612671565b6104c933610222612348565b8015610c54575b6104d990612905565b8051926001600160401b038411610a48576104f5600454612151565b601f8111610beb575b50602093601f8111600114610b78578091929394600091610b6d575b508160011b916000199060031b1c1916176004555b7f2319d1693ced5c256216527c7586842758cea48e90a4d4f69304f7688341379860405160208152806105656020820186612205565b0390a161057433610222612348565b8015610b59575b61058490612905565b82516001600160401b038111610a485761059f600554612151565b601f8111610af0575b50806020601f8211600114610a7d57600091610a72575b508160011b916000199060031b1c1916176005555b7f8e7ee28d3d3b0dd81239d1c0e48b77da9bfa4f63eb4db88c5789bd289d1ec462604051602081528061060a6020820187612205565b0390a161061933610222612348565b8015610a5e575b61062990612905565b8051926001600160401b038411610a4857610645600654612151565b601f81116109db575b50602093601f811160011461093c579161089f6108ad928461089196957fb1402338835e928b8bdd3bed8cd448f3c18f9629e21d0ea59304ef21f11b232298600091610931575b508160011b916000199060031b1c1916176006555b7ff82c617ae111c7dc97cff5fbdc800e6de1cc79d739ef5a400a7c6746fa7a611a60405160208152806106e06020820187612205565b0390a16106ef33610222612348565b801561091d575b6106ff90612905565b600f8054610100600160a81b03198116608435600881901b610100600160a81b03169182179093556040516001600160a01b03909316835290917f513ee920caa09c71ce9ebfe8d94110ab1ed6bb1870fd87cce129a2c8e8979ed490602090a161076b33610222612348565b8015610909575b61077b90612905565b610100600160b81b03199091161760a43560a81b61ffff60a81b1617600f556107a633610222612348565b80156108f5575b6107b690612905565b7f8f6e626fd72fbc5be13797576edf29d80e31d6b396fc85190028e1e19c455fa9602060c43580600755604051908152a16107f333610222612348565b80156108e1575b61080390612905565b7fde6c59c355067bf24092d3ed8616e15f3741ec2ce12f7cb2d817c7523ef6b4ce602060e43580600855604051908152a161084033610222612348565b80156108cd575b61085090612905565b61010435600e5561086560643561025a612348565b6108706064356127b9565b600160ff19600f541617600f5560405195869560a0875260a0870190612205565b908582036020870152612205565b908382036040850152612205565b6001600160a01b03606435811660608401526084351660808301520390a1005b506000546001600160a01b03163314610847565b506000546001600160a01b031633146107fa565b506000546001600160a01b031633146107ad565b506000546001600160a01b03163314610772565b506000546001600160a01b031633146106f6565b905084015189610695565b6006600052600080516020612c9e83398151915260005b601f19831681106109c357506108ad9260018361089f937fb1402338835e928b8bdd3bed8cd448f3c18f9629e21d0ea59304ef21f11b232299610891999896601f198116106109aa575b5050811b016006556106aa565b86015160001960f88460031b161c19169055898061099d565b84870151825560209687019660019092019101610953565b6006600052601f850160051c600080516020612c9e8339815191520160208610610a33575b601f90910160051c600080516020612c9e83398151915201905b818110610a27575061064e565b60008155600101610a1a565b50600080516020612c9e833981519152610a00565b634e487b7160e01b600052604160045260246000fd5b506000546001600160a01b03163314610620565b9050840151856105bf565b91506005600052600080516020612c7e8339815191526000925b601f1983168410610ad8576001935082601f19811610610abf575b5050811b016005556105d4565b86015160001960f88460031b161c191690558580610ab2565b86810151825560209384019360019092019101610a97565b6005600052601f820160051c600080516020612c7e8339815191520160208310610b44575b601f820160051c600080516020612c7e833981519152018110610b3857506105a8565b60008155600101610b15565b50600080516020612c7e833981519152610b15565b506000546001600160a01b0316331461057b565b90508301518561051a565b6004600052600080516020612cbe83398151915260005b601f1983168110610bd3575060019293949582601f19811610610bba575b5050811b0160045561052f565b85015160001960f88460031b161c191690558580610bad565b84870151825560209687019660019092019101610b8f565b6004600052601f850160051c600080516020612cbe8339815191520160208610610c3f575b601f820160051c600080516020612cbe833981519152018110610c3357506104fe565b60008155600101610c10565b50600080516020612cbe833981519152610c10565b506000546001600160a01b031633146104d0565b60405162dc149f60e41b8152600490fd5b34610273576020366003190112610273576001600160a01b03610c9a61222a565b16600052600a602052602060ff604060002054166040519015158152f35b346102735760003660031901126102735760206103f4612948565b3461027357600036600319011261027357602061ffff600f5460a81c16604051908152f35b34610273576020366003190112610273576001600160a01b03610d1961222a565b1660005260096020526020604060002054604051908152f35b346102735760403660031901126102735761025f600435610d51612240565b90806000526001602052610d6c600160406000200154612372565b6126eb565b3461027357602080600319360112610273576001600160401b039060043582811161027357610da4903690600401612271565b90610db133610222612348565b8015610f33575b610dc190612905565b8151928311610a4857610dd5600454612151565b601f8111610ee1575b508092601f8111600114610e5057807f2319d1693ced5c256216527c7586842758cea48e90a4d4f69304f7688341379894600091610e45575b508160011b916000199060031b1c1916176004555b610e40604051928284938452830190612205565b0390a1005b905083015185610e17565b601f198116936004600052600080516020612cbe8339815191529460005b818110610eca57509482916001937f2319d1693ced5c256216527c7586842758cea48e90a4d4f69304f768834137989710610eb1575b5050811b01600455610e2c565b85015160001960f88460031b161c191690558580610ea4565b858301518755600190960195918401918401610e6e565b6004600052600080516020612cbe833981519152601f850160051c810191838610610f29575b601f0160051c01905b818110610f1d5750610dde565b60008155600101610f10565b9091508190610f07565b506000546001600160a01b03163314610db8565b34610273576000366003190112610273576020600c54604051908152f35b3461027357600036600319011261027357602060405160008152f35b3461027357604036600319011261027357610f9a612240565b600435600052600160205260406000209060018060a01b0316600052602052602060ff604060002054166040519015158152f35b3461027357600036600319011261027357336000526020600a815260ff6040600020541661118957610ffe61286b565b6110066128af565b6007544210158061117d575b61101b90612827565b600f54604051630ef40a6760e41b81523360048201528281602481600886901c6001600160a01b03165afa90811561117157600091611144575b5061105e612948565b9133600052600b84526040600020836000528452604060002054911561111e575b505033600052600982526040600020805490600182018092116111085755600c546001810180911161110857600c5533600052600b82526040600020906000528152604060002090815460018101809111611108577f05c702aa5f2f6a0bfc010218e724344d9a31301bdf6db75f7e9e28c4ef8844ec9255600c54604051908152a16001600355005b634e487b7160e01b600052601160045260246000fd5b60a81c61ffff16111561113257828061107f565b60405163042248ef60e51b8152600490fd5b90508281813d831161116a575b61115b81836121c1565b81010312610273575183611055565b503d611151565b6040513d6000823e3d90fd5b50600854421115611012565b60405163a5baf15160e01b8152600490fd5b3461027357602080600319360112610273576001600160401b0390600435828111610273576111ce903690600401612271565b906111db33610222612348565b8015611352575b6111eb90612905565b8151928311610a485760056112008154612151565b601f8111611303575b508193601f811160011461127457807f8e7ee28d3d3b0dd81239d1c0e48b77da9bfa4f63eb4db88c5789bd289d1ec46295600091611269575b508160011b916000199060031b1c1916179055610e40604051928284938452830190612205565b905084015186611242565b601f1981169482600052600080516020612c7e8339815191529560005b8181106112ec57509582916001937f8e7ee28d3d3b0dd81239d1c0e48b77da9bfa4f63eb4db88c5789bd289d1ec46298106112d3575b5050811b019055610e2c565b86015160001960f88460031b161c1916905586806112c7565b868301518855600190970196918501918501611291565b81600052600080516020612c7e833981519152601f8601831c810191848710611348575b601f01831c01905b81811061133c5750611209565b6000815560010161132f565b9091508190611327565b506000546001600160a01b031633146111e2565b3461027357611374366122b8565b61137c612761565b61138461286b565b60005b815181101561025f576001600160a01b036113a28284612b9b565b5116906113ad612761565b6113b561286b565b6113c182610222612348565b610261576113d46113d99261025a612348565b612b8c565b611387565b34610273576000366003190112610273576000546040516001600160a01b039091168152602090f35b34610273576000366003190112610273576020600d54604051908152f35b3461027357611433366122b8565b61143b612761565b61144361286b565b60005b815181101561025f576001600160a01b036114618284612b9b565b51169061146c612761565b61147461286b565b61148082610222612348565b15611499576113d461149492610d6c612348565b611446565b6040516375522eb560e11b8152600490fd5b34610273576020366003190112610273577fde6c59c355067bf24092d3ed8616e15f3741ec2ce12f7cb2d817c7523ef6b4ce60206004356114ee33610222612348565b801561150b575b6114fe90612905565b80600855604051908152a1005b506000546001600160a01b031633146114f5565b346102735760603660031901126102735761153861222a565b6044356001600160a01b0381811692602435928490036102735761155e33610222612348565b8015611703575b61156e90612905565b60405180926370a0823160e01b8252306004830152816024602095869386165afa908115611171576000916116d6575b50831161167c5760008061025f957f7472616e7366657228616464726573732c75696e743235362900000000000000856040516115da8161218b565b601981520152604051958587019163a9059cbb60e01b83526024880152604487015260448652611609866121a6565b604051956116168761218b565b601e87527f416464726573733a206c6f772d6c6576656c2063616c6c206661696c6564000086880152519082855af1903d15611673573d61165681612256565b9061166460405192836121c1565b8152600081943d92013e612baf565b60609250612baf565b60405162461bcd60e51b815260048101839052602c60248201527f4142563a20616d6f756e745f677265617465725f7468616e5f7265747269657660448201526b61626c655f62616c616e636560a01b6064820152608490fd5b90508281813d83116116fc575b6116ed81836121c1565b8101031261027357518561159e565b503d6116e3565b5060005482163314611565565b3461027357600036600319011261027357604051600060055461173281612151565b80845290600190818116908115610325575060011461175b576102d8846102c4818603826121c1565b600560009081529250600080516020612c7e8339815191525b82841061178c5750505081016020016102c4826102b4565b80546020858701810191909152909301928101611774565b3461027357602080600319360112610273576001600160401b0390600435828111610273576117d7903690600401612271565b906117e433610222612348565b8015611960575b6117f490612905565b8151928311610a4857611808600654612151565b601f811161190e575b508092601f811160011461187d57807ff82c617ae111c7dc97cff5fbdc800e6de1cc79d739ef5a400a7c6746fa7a611a94600091611872575b508160011b916000199060031b1c191617600655610e40604051928284938452830190612205565b90508301518561184a565b601f198116936006600052600080516020612c9e8339815191529460005b8181106118f757509482916001937ff82c617ae111c7dc97cff5fbdc800e6de1cc79d739ef5a400a7c6746fa7a611a97106118de575b5050811b01600655610e2c565b85015160001960f88460031b161c1916905585806118d1565b85830151875560019096019591840191840161189b565b6006600052600080516020612c9e833981519152601f850160051c810191838610611956575b601f0160051c01905b81811061194a5750611811565b6000815560010161193d565b9091508190611934565b506000546001600160a01b031633146117eb565b346102735760003660031901126102735761198d612761565b600080546001600160a01b0319811682556001600160a01b03167f8be0079c531659141344cd1fd0a4f28419497f9722a3daafe3b4186f6b6457e08280a3005b346102735760203660031901126102735760043561ffff81168103610273576119f833610222612348565b8015611a29575b611a0890612905565b600f805461ffff60a81b191660a89290921b61ffff60a81b16919091179055005b506000546001600160a01b031633146119ff565b34610273576000366003190112610273576020600754604051908152f35b3461027357600036600319011261027357602060ff600254166040519015158152f35b34610273576020366003190112610273577f8f6e626fd72fbc5be13797576edf29d80e31d6b396fc85190028e1e19c455fa96020600435611ac133610222612348565b8015611ade575b611ad190612905565b80600755604051908152a1005b506000546001600160a01b03163314611ac8565b3461027357600036600319011261027357611b0f33610222612348565b8015611be6575b611b1f90612905565b60025460ff811615611ba7575060025460ff811615611b6b5760ff19166002557f5db9ee0a495bf2e6ff9c91a7834c1ba4fdd244a5e8aa4e537bd38aeae4b073aa6020604051338152a1005b60405162461bcd60e51b815260206004820152601460248201527314185d5cd8589b194e881b9bdd081c185d5cd95960621b6044820152606490fd5b600190611bb261286b565b60ff1916176002557f62e78cea01bee320cd4e420270b5ea74000d11b0c9f74754ebdbfc544b05a2586020604051338152a1005b506000546001600160a01b03163314611b16565b3461027357600036600319011261027357336000526020600a815260ff6040600020541661118957611c2a61286b565b611c326128af565b60075442101580611d75575b611c4790612827565b600f54604051630ef40a6760e41b81523360048201528281602481600886901c6001600160a01b03165afa90811561117157600091611d48575b50611c8a612948565b9133600052600b845260406000208360005284526040600020549115611d34575b505033600052600982526040600020805490600182018092116111085755600d546001810180911161110857600d5533600052600b82526040600020906000528152604060002090815460018101809111611108577fbfb7f61d27ed48256e28b360d14577d3231eb3c8e8d5b97b12d2d0eeb7c125a59255600d54604051908152a16001600355005b60a81c61ffff161115611132578280611cab565b90508281813d8311611d6e575b611d5f81836121c1565b81010312610273575183611c81565b503d611d55565b50600854421115611c3e565b3461027357604036600319011261027357611d9a612240565b336001600160a01b03821603611db65761025f906004356126eb565b60405162461bcd60e51b815260206004820152602f60248201527f416363657373436f6e74726f6c3a2063616e206f6e6c792072656e6f756e636560448201526e103937b632b9903337b91039b2b63360891b6064820152608490fd5b34610273576000366003190112610273576020600854604051908152f35b34610273576020366003190112610273577f513ee920caa09c71ce9ebfe8d94110ab1ed6bb1870fd87cce129a2c8e8979ed46020611e6d61222a565b611e7933610222612348565b8015611ebd575b611e8990612905565b600f8054610100600160a81b031916600883901b610100600160a81b03161790556040516001600160a01b039091168152a1005b506000546001600160a01b03163314611e80565b346102735760403660031901126102735761025f600435611ef0612240565b9080600052600160205261025a600160406000200154612372565b346102735760203660031901126102735760043560005260016020526020600160406000200154604051908152f35b3461027357602036600319011261027357611f5361222a565b611f5b612761565b611f6361286b565b611f6f81610222612348565b156114995761025f90610d6c612348565b3461027357602036600319011261027357611f9d33610222612348565b8015611fb5575b611fad90612905565b600435600e55005b506000546001600160a01b03163314611fa4565b3461027357602036600319011261027357611fe261222a565b611fee33610222612348565b8015612029575b611ffe90612905565b6001600160a01b03166000908152600a60205260409020805460ff818116151660ff19909116179055005b506000546001600160a01b03163314611ff5565b3461027357600036600319011261027357600f5460405160089190911c6001600160a01b03168152602090f35b3461027357600036600319011261027357604051600060045461208c81612151565b8084529060019081811690811561032557506001146120b5576102d8846102c4818603826121c1565b600460009081529250600080516020612cbe8339815191525b8284106120e65750505081016020016102c4826102b4565b805460208587018101919091529093019281016120ce565b34610273576020366003190112610273576004359063ffffffff60e01b821680920361027357602091637965db0b60e01b8114908115612140575b5015158152f35b6301ffc9a760e01b14905083612139565b90600182811c92168015612181575b602083101461216b57565b634e487b7160e01b600052602260045260246000fd5b91607f1691612160565b604081019081106001600160401b03821117610a4857604052565b608081019081106001600160401b03821117610a4857604052565b90601f801991011681019081106001600160401b03821117610a4857604052565b60005b8381106121f55750506000910152565b81810151838201526020016121e5565b9060209161221e815180928185528580860191016121e2565b601f01601f1916010190565b600435906001600160a01b038216820361027357565b602435906001600160a01b038216820361027357565b6001600160401b038111610a4857601f01601f191660200190565b81601f820112156102735780359061228882612256565b9261229660405194856121c1565b8284526020838301011161027357816000926020809301838601378301015290565b602080600319830112610273576001600160401b03916004358381116102735781602382011215610273578060040135938411610a48578360051b9060405194612304858401876121c1565b855260248486019282010192831161027357602401905b828210612329575050505090565b81356001600160a01b038116810361027357815290830190830161231b565b60405160208101906826a7a222a920aa27a960b91b82526009815261236c8161218b565b51902090565b6000818152600191602091838352604093848220338352845260ff85832054161561239e575050505050565b33855193606085018581106001600160401b0382111761265d578752602a8552858501918736843785511561264957603083538551841015612649576078602187015360295b8481116125df575061259d578651926123fc846121a6565b60428452868401946060368737845115612589576030865384518210156125895790607860218601536041915b81831161251b575050506124d9576124d59386936124b9936124aa6048946124819a519a8b957f416363657373436f6e74726f6c3a206163636f756e74200000000000000000008c88015251809260378801906121e2565b8401917001034b99036b4b9b9b4b733903937b6329607d1b6037840152518093868401906121e2565b010360288101875201856121c1565b5192839262461bcd60e51b845260048401526024830190612205565b0390fd5b60648587519062461bcd60e51b825280600483015260248201527f537472696e67733a20686578206c656e67746820696e73756666696369656e746044820152fd5b909192600f81166010811015612575576f181899199a1a9b1b9c1cb0b131b232b360811b901a61254b8588612800565b5360041c92801561256157600019019190612429565b634e487b7160e01b82526011600452602482fd5b634e487b7160e01b83526032600452602483fd5b634e487b7160e01b81526032600452602490fd5b60648688519062461bcd60e51b825280600483015260248201527f537472696e67733a20686578206c656e67746820696e73756666696369656e746044820152fd5b90600f81166010811015612635576f181899199a1a9b1b9c1cb0b131b232b360811b901a61260d8389612800565b5360041c90801561262157600019016123e4565b634e487b7160e01b86526011600452602486fd5b634e487b7160e01b87526032600452602487fd5b634e487b7160e01b85526032600452602485fd5b634e487b7160e01b85526041600452602485fd5b906000918083526001602052604083209160018060a01b03169182845260205260ff604084205416156126a357505050565b80835260016020526040832082845260205260408320600160ff198254161790557f2f8788117e7eff1d82e926ec794901d17c78024a50270940304540a733656f0d339380a4565b906000918083526001602052604083209160018060a01b03169182845260205260ff60408420541661271c57505050565b8083526001602052604083208284526020526040832060ff1981541690557ff6391f5c32d9c69d2a47ea670b442974b53935d1edc7fd64eb21e047a839171b339380a4565b6000546001600160a01b0316330361277557565b606460405162461bcd60e51b815260206004820152602060248201527f4f776e61626c653a2063616c6c6572206973206e6f7420746865206f776e65726044820152fd5b600080546001600160a01b039283166001600160a01b03198216811783559216907f8be0079c531659141344cd1fd0a4f28419497f9722a3daafe3b4186f6b6457e09080a3565b908151811015612811570160200190565b634e487b7160e01b600052603260045260246000fd5b1561282e57565b60405162461bcd60e51b8152602060048201526015602482015274566f74696e67506572696f644e6f7441637469766560581b6044820152606490fd5b60ff6002541661287757565b60405162461bcd60e51b815260206004820152601060248201526f14185d5cd8589b194e881c185d5cd95960821b6044820152606490fd5b6002600354146128c0576002600355565b60405162461bcd60e51b815260206004820152601f60248201527f5265656e7472616e637947756172643a207265656e7472616e742063616c6c006044820152606490fd5b1561290c57565b60405162461bcd60e51b815260206004820152601460248201527327b7363ca6b7b232b930ba37b927b927bbb732b960611b6044820152606490fd5b600062010bd962015180420481810191838212801591841291821691151617612b78576226496501908262253d8c83129112908015821691151617612561578060021b6004918282058103612b655762023ab1809205918281029081058303612b5257600381019085600383129112908015821691151617612b525790836129d1920590612c64565b6001810160018112858312908015821691151617612b5257610fa09080820291820503612b525762164b099005906105b58281029081058303612b3f579084612a1b920590612c64565b91601f83019285601f85129112908015821691151617612b52578260500292605084058103612b3f5761098f809405938481029081058503612b2c57906050612a65920590612c64565b94600b840593600281019082600283129112908015821691151617612b195784600c0290600c82058603612b065790612a9d91612c64565b946030198301928313600116612af35782606402926064840503612af3575050612ad09291612acb91612c48565b612c48565b916040519160208301938452604083015260608201526060815261236c816121a6565b634e487b7160e01b825260119052602490fd5b634e487b7160e01b835260118752602483fd5b634e487b7160e01b825260118652602482fd5b634e487b7160e01b875260118652602487fd5b634e487b7160e01b865260118552602486fd5b634e487b7160e01b855260118452602485fd5b634e487b7160e01b845260118352602484fd5b634e487b7160e01b83526011600452602483fd5b60001981146111085760010190565b80518210156128115760209160051b010190565b91929015612c115750815115612bc3575090565b3b15612bcc5790565b60405162461bcd60e51b815260206004820152601d60248201527f416464726573733a2063616c6c20746f206e6f6e2d636f6e74726163740000006044820152606490fd5b825190915015612c245750805190602001fd5b60405162461bcd60e51b8152602060048201529081906124d5906024830190612205565b9190916000838201938412911290801582169115161761110857565b818103929160001380158285131691841216176111085756fe036b6384b5eca791c62761152d0c79bb0604c104a5fb6f4eb0703f3154bb3db0f652222313e28459528d920b65115c16c04f3efc82aaedc97be59f3f377c0d3f8a35acfbc15ff81a39ae7d344fd709f28e8600b4aa8c65c6b64bfe7fe36bd19ba26469706673582212208fa8649a321ef6910f7ea2b55fd3810e4c2cdfdc57db19b299a6aaecbdb3732064736f6c63430008110033",
  "linkReferences": {},
  "deployedLinkReferences": {}
}